:020000040000fa
:080000000001040000000000f3
:020000040000fa
:100200004f8e2100007922000001880000000000cc
:100210000c00070020492400010020001100070005
:10022000000020000000e000020032000000020098
:1002300000000000dc4a0200000000000040da007c
:100240000000fe004440a900000020000000e00083
:100250000300320000002000a00188004440a800f4
:100260000000060091018800800078000000eb008b
:1002700015003700e280400032a0b4009101ba00be
:10028000e280400032a0b4009102ba00e280400057
:1002900032a0b4000002eb00472bde00f507b200ed
:1002a000602ce10004003a000059eb008301e900f2
:1002b000fdff3e00040037006128e100010032002c
:1002c0000082eb00040007001101ba000200e00008
:1002d000e8ff3a00000006003159ba008301e90046
:1002e0000c0032002159ba008301e90008003200f5
:1002f0000400e00003003a00e280400032a0b400b5
:10030000f5ff370011d9ba008301e900faff3a007e
:100310008100e800e180400032a0b4000000060047
:1003200054340400000000003835040000000000d0
:1003300006440400000000005e42040000000000cb
:100340002428040000000000981d040000000000a4
:100350003c3c0400000000001a1d040000000000e6
:10036000363a040000000000621a04000000000099
:10037000889fbe00e30440000900a100808f540064
:100380004a003600e38f540001003e00490020007f
:10039000c2b680000200e000020032008200780055
:1003a0000c003700a16d210003003700908f54002e
:1003b000230036008080e800110078000000e00093
:1003c000faff3a000f003700908f54001c003600ef
:1003d0008080e800110078000000e000faff3a0099
:1003e00012017800a16d210003003700908f5400a6
:1003f000130036008080e80011007800820f500062
:10040000faff3a00b8b68000890f540001003100ad
:1004100009047800080078006d0007000000e00083
:1004200004003a00890f5400200032000804d10073
:10043000f5ff37000818780031000700d4ff3700b7
:10044000110178009201780064805100890f5000fa
:100450000300310012009000800878000700370088
:100460000900410080087800920190001300980074
:1004700011007800128814000909780091007800b2
:100480000100e00005003200110090000000e000d3
:10049000020032000180e800010037000000eb009c
:1004a000c0b688000280e800010037000000eb00c1
:1004b0004f04be000000060000047800060037006c
:1004c00082004100f0b68000e10078000200e80000
:1004d000e0b6880001000100e2b6800000b78000ad
:1004e000800f5100f6ff390020692100f0b6880026
:1004f0002002200000b78800080078003b000700b9
:100500000000e000310032008080e90091027800b4
:10051000e38f52002d0036000508a3002b003a009f
:10052000d2b680000200e00002003200828f50004c
:100530000400310002087800d1b6880016003700a8
:1005400003017800920190000300e00002003200f5
:10055000818f5100faff3900120278000400410037
:10056000808f500019003900810f500003003a00bd
:100570000509420082007800070037000300e00010
:100580000300320005804000808f51000f003900c9
:100590009300980011019800110190000200e00002
:1005a0000a00320011804000820f500007003a001c
:1005b000806d21000008eb0011009000110178000f
:1005c0009008410010009000900098000000060084
:1005d0000000e000030034000c000700e10f4000c1
:1005e00001003a000000eb00000006000c02e200ef
:1005f00004003d000f42ab00020032000f02ab00ce
:10060000feff32000040da00feff3700889fbe0088
:100610008004780010b780000000e00003003a007a
:10062000100007000000e0000a00350010b780004d
:100630000900e00002003a000004780006003700dc
:100640000004780009004000060007000000e000f8
:1006500001003d000084eb00080078004f04be005c
:1006600000000600800078000000e00004003a006e
:10067000406e210010b788000101780006003700a5
:100680000081eb00408e2100808f500002003e0070
:1006900011b788000001eb0002007800000006009e
:1006a000839f68000100e00002003d006000100030
:1006b000e08018000300e00002003d00600111002e
:1006c000e08119002b0107004f00e00002003b0011
:1006d00060001000e080180000000600889fbe0047
:1006e0008a9fbe00010578000100e000040035008b
:1006f00008003c000000e000200032000500370048
:1007000060001000e080180002003b0001f02c00a7
:100710001a0037000004be006011b8006b09200009
:100720000982cf00020039000882cf000441b000e6
:10073000694252000e00320008003b0082817100c5
:10074000610164008904d1000884d3008b05e800ae
:100750000442e800f9ff3a000500370008044400ad
:1007600089844c008b05e9000442e900fbff3a0054
:10077000100107000af0a70001f0a0004f05be001d
:100780004f04be0000000600889fbe008a9fbe0086
:100790008c1f78002d0107003401330003866c00a4
:1007a0006450e1002e0032006420e100330032008a
:1007b0006150e1002f0032006120e1003100320081
:1007c00085855500eb07b0000900200008042000d3
:1007d000050037000804440089844c000a003100f9
:1007e0000603430087834b000001530081815b00b7
:1007f000f8ff33000203be000800a0000804440014
:1008000089844c00f6ff3900c639dd00830173008e
:1008100001003200130020008904d1000884d300b5
:100820000998a300050032000800a7000300a000fb
:100830008904d1000884d3008b05e8008904d10025
:100840000884d3000001eb000281d200d900070028
:1008500001f0a1000cf0a70001f0a0000c0137008e
:100860006420e1000e0132000801be000200be005b
:10087000f7ff37006120e100090132006000b80095
:10088000f3ff37000000200001f82700f0ff3700d9
:10089000f4ff2f000501370014002000030137008a
:1008a00003f0a200889fbe008a9fbe008c1f7800c4
:1008b000e6000700ed0033006450e1004f00320015
:1008c0006420e1005200320003826c0007003b000c
:1008d0000905d0000306d000820f54000c065d000d
:1008e0000200390002003200890178000306780016
:1008f0008582550004003d000003fd008103fd00da
:100900008502ea008b854200840f720002003b00e2
:1009100060001000e08018006011b8000005eb00d6
:100920007a28e1000a00390006007800c75ddd0082
:10093000f707b200878075002d00370082817100b3
:100940000a017800610560008180d1000080d30039
:100950008502e900f9ff3b00060440008784480057
:1009600002003b0060041400e0841c000988a3001e
:10097000070032008a817100828171006101640088
:100980008904d1000884d3008b05e80017003700e4
:100990000978a30013003a000b00e00013003400b4
:1009a0008b05e9000804440089844c000a44740063
:1009b0000978a3000d003a000b00e00007003400a6
:1009c0008b05e9000804440089844c0001003a00ca
:1009d0000b0020000978a300f7ff32000001eb00b4
:1009e00002003700828171000a017800710007005f
:1009f0000cf0a70001f0a000a50037006420e10082
:100a000002003a00838f6c00a50033000801be008d
:100a10000200be009e00370004002000a300370043
:100a2000889fbe008a9fbe008c1f78008700070049
:100a30008e00330003866c006450e1002400320015
:100a40006420e100270032006150e1002200320002
:100a50006120e100210032008b854200eb07b100ec
:100a60000134b800003ab8000804420089844a0002
:100a7000013ab8000030b8008880400009014a00ff
:100a8000040033000000400081804800020149005a
:100a90008b05e900c909dd00830170000100320007
:100aa00013002000c814de004814dd004709de00f2
:100ab0001200b200c808de00088470003d00070084
:100ac00001f0a1000cf0a70001f0a00070003700b9
:100ad0006120e100720032000801be000200be0089
:100ae000f7ff37006150e100fcff3a006c0037006f
:100af0000001be00880007000470a70003f0a100f9
:100b00006509b100160032000d0035006828e100cb
:100b100006003500f0ff2f00f1ff27000300e00082
:100b200013003b0001002800000005000000400009
:100b3000818048008502e900fcff3a000800370088
:100b4000f88f420002003c008000eb00000005002e
:100b50008100d1000080d3008502e800fcff3a004c
:100b60000300e00002003b0060001000e08018007d
:100b7000000006006022b800060220000000d0003d
:100b80008180d2000482d2008582d2000000a000c1
:100b90000202520083825a00030031000202420026
:100ba00083824a000000a1000603e900f3ff3a0037
:100bb0000000060081002000618055000b003d0010
:100bc0000b00200061fe2f000100e1001d00340039
:100bd00082817100610164008904d1000884d3001e
:100be0000000e800faff3a00710020006100640094
:100bf000030070000200600009003200610444003c
:100c0000e0844c000988a500050032008b05e8004f
:100c10006808e10002003a008904d1000884d3008a
:100c2000f20f20000258e10005003d00c75ddd0025
:100c3000f907b200898075000800780000000600fe
:100c40000bf827008b007800000005000004be00b0
:100c5000310007000003be000405be000200be0014
:100c60002d000700844f7500000006000200be0042
:100c70006450e100050036006420e1000200360007
:100c80000968a30001003a000800be000160a0004e
:100c90004f0678004f05be004f04be00000006005e
:100ca000f0ff2f00f1ff2700f9ff3700889fbe00fb
:100cb0008a9fbe00841f7800e4ff07004f00780081
:100cc00011003300f0ff2f00838f6c0006003b0003
:100cd000040565000a00a7000800370009f0a60017
:100ce0001000200008003700820f5400838f5c0042
:100cf000030039001000200001003e000000200029
:100d000009f0a7000000ea004f05be004f04be0036
:100d10000000e00000000600c70ade00f107b20094
:100d2000f50fb20008003200e1cf420002003200ad
:100d30000170a00024000500810f70000100320046
:100d40000408050044000500810f700002003a000d
:100d5000140005008502e9000000400081c0480041
:0c0d6000fcff3b000170a0002400050017
:020000040000fa
:0200000401f009
:04000000e6ff000017
:020000040000fa
:0200000401f009
:04000400ff7f00007a
:020000040000fa
:0200000401f009
:040008007fff000076
:020000040000fa
:0200000401f009
:04001400ffff0000ea
:020000040000fa
:10000800504c0000504c0000504c0000504c000078
:10001800504c0000504c0000504c0000504c000068
:10002800504c0000504c0000504c0000504c000058
:10003800504c0000504c0000e2400000504c0000c2
:10004800504c0000784b0000184b0000442a000078
:10005800504c0000504c0000fa300000504c00009a
:10006800504c0000504c0000504c0000504c000018
:10007800504c0000b44b00007e470000504c00007c
:10008800504c0000504c0000504c0000504c0000f8
:10009800504c0000504c0000504c0000504c0000e8
:1000a800504c0000504c0000504c0000504c0000d8
:1000b800504c0000504c0000504c0000504c0000c8
:1000c800504c0000504c0000504c0000504c0000b8
:1000d800504c0000504c0000504c0000504c0000a8
:1000e800504c0000504c0000504c0000504c000098
:0800f800504c0000504c0000c8
:020000040000fa
:10010800504c0000504c0000504c0000504c000077
:10011800504c0000504c0000504c0000504c000067
:10012800504c0000504c0000504c0000504c000057
:10013800504c0000504c0000e2400000504c0000c1
:10014800504c0000784b0000184b0000442a000077
:10015800504c0000504c0000fa300000504c000099
:10016800504c0000504c0000504c0000504c000017
:10017800504c0000b44b00007e470000504c00007b
:10018800504c0000504c0000504c0000504c0000f7
:10019800504c0000504c0000504c0000504c0000e7
:1001a800504c0000504c0000504c0000504c0000d7
:1001b800504c0000504c0000504c0000504c0000c7
:1001c800504c0000504c0000504c0000504c0000b7
:1001d800504c0000504c0000504c0000504c0000a7
:1001e800504c0000504c0000504c0000504c000097
:0801f800504c0000504c0000c7
:020000040000fa
:100d6c002600fa003e1c0700af2107000040eb00f4
:100d7c005a110700ad170700c5a2a800c5c2bf00d5
:100d8c000080fb004500de006140600061406000b7
:100d9c004401dd00512c200091407800f0ceb300ce
:100dac0000c0600002407000c5e2b700c5c2bf00c1
:100dbc000080fb004400de0061406000c700dd00e5
:100dcc00c4c2bf000074a10001407000c4e2b700af
:100ddc00c4c2bf000080fb004700de006140600021
:100dec004201dd00512c200091407800b0cfb300bf
:100dfc0000c0600002407000c5e2b700c5c2bf0071
:100e0c000080fb004200de00614060006140600039
:100e1c0000414000512c200091407800d0cfb3000d
:100e2c0000c0600002407000c5e2b700c5c2bf0040
:100e3c000080fb000000d100614060006140600058
:100e4c004601dd00412c200091407800f0cbb3002e
:100e5c0000c0600002407000c4e2b700c4c2bf0012
:100e6c000080fb004600de006140600061406000d5
:100e7c004601dd00512c200091407800f0cbb300ee
:100e8c0000c0600002407000c5e2b700c5c2bf00e0
:100e9c000080fb004600de0061406000c700dd0002
:100eac00c5c2bf000074a10001407000c5e2b700cc
:100ebc000000eb00fd1f0700201798001000200019
:100ecc00fa1f07001017980020002000f71f0700da
:100edc000017980030002000f41f0700700f9800d6
:100eec0040002000f11f0700600f98005000200008
:100efc00ee1f0700500f980060002000eb1f07004a
:100f0c00400f980070002000e81f0700300f980079
:100f1c00ae1090001e109000808040000e109000cb
:100f2c00808040007e089000808040006e08900019
:100f3c00808040005e089000808040004e08900049
:100f4c00808040003e08900000804000820020001d
:100f5c00110009000200d80080007800c0f92f00b1
:100f6c0000804000200798006000b800008fbe0091
:100f7c000400370010002000010020001e0f40006c
:100f8c005e974800f0e1240001002000be0f100025
:100f9c00ae8f1800f7ff3400000037000000eb00a4
:100fac00881f0700200f980010002000851f0700e5
:100fbc00100f980020002000821f0700000f9800df
:100fcc00300020007f1f07007007980040002000b1
:100fdc007c1f07006007980050002000791f070055
:100fec005007980060002000761f0700400798000b
:100ffc0070002000731f0700300798000000eb0002
:10100c00aa1f07002017980010002000a71f070038
:10101c001017980020002000a41f0700001798004c
:10102c0030002000a11f0700700f98004000200026
:10103c009e1f0700600f9800500020009b1f0700a8
:10104c00500f980060002000981f0700400f980078
:10105c0070002000951f0700300f9800ae10900014
:10106c003e08900000804000220020001100090082
:10107c000200d80000017800ae009000c0f92f00eb
:10108c0000804000800f510057003d00c5e2a800d1
:10109c00c5c2bf000080fb004700de00614060005d
:1010ac004601dd00412c200091407800f0cbb300cc
:1010bc0000c0600002407000c4e2b700c5c2a900c5
:1010cc00c5c2bf000080fb004600de00614060002e
:1010dc00614060004501dd00512c200091407800fa
:1010ec00f0cdb30000c0600002407000c5e2b70054
:1010fc00c5c2bf000080fb004500de0061406000ff
:10110c00614060004201dd00512c200091407800cc
:10111c00b0cfb30000c0600002407000c5e2b70061
:10112c00c5c2bf000080fb004200de0061406000d1
:10113c00614060004401dd00512c2000914078009a
:10114c00f0ceb30000c0600002407000c5e2b700f2
:10115c00c5c2bf000080fb004400de00614060009f
:10116c006140600000414000512c2000914078000b
:10117c00d0cfb30000c0600002407000c5e2b700e1
:10118c00c5c2bf000080fb000000d10061406000c0
:10119c00c700dd00c4c2bf000074a1000140700094
:1011ac00c4e2b70000322000a9160700003220006c
:1011bc00e41607006000b800008fbe000400370082
:1011cc0010002000010020001e0f40005e97480018
:1011dc00f069280011002000be0f1000ae8f18001f
:1011ec00f7ff34006dff3700ae1090001e1090001a
:1011fc000080400022002000110009000200d800ed
:10120c00800078002e009000808f500056003d002a
:10121c00c4e2a800c4c2bf000080fb004700de008f
:10122c00614060004601dd00412c200091407800b7
:10123c00f0cbb30000c0600002407000c4e2b70005
:10124c00c5e2a900c5c2bf000080fb004700de005c
:10125c00614060004601dd00512c20009140780077
:10126c00f0cbb30000c0600002407000c5e2b700d4
:10127c00c5c2bf000080fb004600de00614060007c
:10128c00614060004501dd00512c20009140780048
:10129c00f0cdb30000c0600002407000c5e2b700a2
:1012ac00c5c2bf000080fb004500de00614060004d
:1012bc00614060004201dd00512c2000914078001b
:1012cc00b0cfb30000c0600002407000c5e2b700b0
:1012dc00c5c2bf000080fb004200de006140600020
:1012ec00614060004401dd00512c200091407800e9
:1012fc00f0ceb30000c0600002407000c5e2b70041
:10130c00c5c2bf000080fb004400de0061406000ed
:10131c00c700dd00c4c2bf000074a1000140700012
:10132c00c4e2b7008025200049160700800c20007d
:10133c00841607006000b800008fbe000400370060
:10134c0010002000010020001e0f40005e97480096
:10135c00f069280011002000be0f1000ae8f18009d
:10136c00f7ff34000dff37009e1090000e10900018
:10137c000080400022002000110009000200d8006b
:10138c00800078002e009000808f500057003d00a8
:10139c00c522a800c5c2bf000080fb000000d10020
:1013ac0061406000c700dd00c4c2bf000074a10032
:1013bc0001407000c4e2b700c5e2a900c5c2bf007d
:1013cc000080fb004700de00614060004601dd004c
:1013dc00512c200091407800f0cbb30000c060008d
:1013ec0002407000c5e2b700c5c2bf000080fb0020
:1013fc004600de0061406000614060004501dd0098
:10140c00512c200091407800f0cdb30000c060005a
:10141c0002407000c5e2b700c5c2bf000080fb00ef
:10142c004500de0061406000614060004201dd006b
:10143c00512c200091407800b0cfb30000c0600068
:10144c0002407000c5e2b700c5c2bf000080fb00bf
:10145c004200de0061406000614060004401dd003c
:10146c00512c200091407800f0ceb30000c06000f9
:10147c0002407000c5e2b700c5c2bf000080fb008f
:10148c004400de0061406000614060004601dd0008
:10149c00412c200091407800f0cbb30000c06000dc
:1014ac0002407000c4e2b70000192000e8150700e4
:1014bc0000e72f00231607006000b800008fbe0065
:1014cc000400370010002000010020001e0f400017
:1014dc005e974800f069280011002000be0f100034
:1014ec00ae8f1800f7ff3400acfe37008e10900062
:1014fc007e089000008040002200200011000900ae
:10150c000200d800800078002e009000808f5000e0
:10151c0056003d00c582a800c5c2bf000080fb007c
:10152c004400de006140600061406000004140000a
:10153c00512c200091407800d0cfb30000c0600047
:10154c0002407000c5e2b700c5e2a900c5c2bf00e9
:10155c000080fb004700de00614060004601dd00ba
:10156c00512c200091407800f0cbb30000c06000fb
:10157c0002407000c5e2b700c5c2bf000080fb008e
:10158c004600de0061406000614060004501dd0006
:10159c00512c200091407800f0cdb30000c06000c9
:1015ac0002407000c5e2b700c5c2bf000080fb005e
:1015bc004500de0061406000614060004201dd00da
:1015cc00512c200091407800b0cfb30000c06000d7
:1015dc0002407000c5e2b700c5c2bf000080fb002e
:1015ec004200de0061406000c700dd00c4c2bf00e5
:1015fc000074a10001407000c4e2b700c4c2bf0077
:10160c000080fb004700de00614060004601dd0009
:10161c00412c200091407800f0cbb30000c060005a
:10162c0002407000c4e2b700802520008815070036
:10163c0080da2f00c31507006000b800008fbe00d1
:10164c000400370010002000010020001e0f400095
:10165c005e974800f069280011002000be0f1000b2
:10166c00ae8f1800f7ff34004cfe3700fe089000d8
:10167c006e0890000080400022002000110009003c
:10168c000200d800800078002e009000808f50005f
:10169c0056003d00c542a800c5c2bf000080fb003b
:1016ac004200de0061406000614060004401dd00ea
:1016bc00512c200091407800f0ceb30000c06000a7
:1016cc0002407000c5e2b700c5e2a900c5c2bf0068
:1016dc000080fb004700de00614060004601dd0039
:1016ec00512c200091407800f0cbb30000c060007a
:1016fc0002407000c5e2b700c5c2bf000080fb000d
:10170c004600de0061406000614060004501dd0084
:10171c00512c200091407800f0cdb30000c0600047
:10172c0002407000c5e2b700c5c2bf000080fb00dc
:10173c004500de00614060006140600000414000f7
:10174c00512c200091407800d0cfb30000c0600035
:10175c0002407000c5e2b700c5c2bf000080fb00ac
:10176c000000d10061406000c700dd00c4c2bf00b2
:10177c000074a10001407000c4e2b700c4c2bf00f5
:10178c000080fb004700de00614060004601dd0088
:10179c00412c200091407800f0cbb30000c06000d9
:1017ac0002407000c4e2b700003220002815070088
:1017bc0000ce2f00631507006000b800008fbe003c
:1017cc000400370010002000010020001e0f400014
:1017dc005e974800f069280011002000be0f100031
:1017ec00ae8f1800f7ff3400ecfd3700be089000f8
:1017fc004e089000008040002200200011000900db
:10180c000200d800800078002e009000808f5000dd
:10181c0054003d00c5c2a800c5c2bf000080fb003b
:10182c004600de0061406000c700dd00c5c2bf009d
:10183c000074a10001407000c5e2b700c5a2a90068
:10184c00c5c2bf000080fb004500de0061406000a7
:10185c00614060004201dd00512c20009140780075
:10186c00b0cfb30000c0600002407000c5e2b7000a
:10187c00c5c2bf000080fb004200de00614060007a
:10188c00614060004401dd00512c20009140780043
:10189c00f0ceb30000c0600002407000c5e2b7009b
:1018ac00c5c2bf000080fb004400de006140600048
:1018bc006140600000414000512c200091407800b4
:1018cc00d0cfb30000c0600002407000c5e2b7008a
:1018dc00c5c2bf000080fb000000d1006140600069
:1018ec00c700dd00c4c2bf000074a100014070003d
:1018fc00c4e2b700c4c2bf000080fb004700de009a
:10190c00614060004601dd00412c200091407800d0
:10191c00f0cbb30000c0600002407000c4e2b7001e
:10192c00800c2000ca140700802520000515070034
:10193c006000b800008fbe000400370010002000cb
:10194c00010020001e0f40005e974800f06928003f
:10195c0011002000be0f1000ae8f1800f7ff3400ee
:10196c008efd3700ce0890005e089000008040008d
:10197c0022002000110009000200d800800078002d
:10198c002e009000808f500056003d00c5a2a8008c
:10199c00c5c2bf000080fb004500de006140600056
:1019ac00614060004601dd00512c20009140780020
:1019bc00f0cbb30000c0600002407000c5e2b7007d
:1019cc00c5e2a900c5c2bf000080fb004700de00d5
:1019dc00614060004201dd00512c200091407800f4
:1019ec00b0cfb30000c0600002407000c5e2b70089
:1019fc00c5c2bf000080fb004200de0061406000f9
:101a0c00614060004401dd00512c200091407800c1
:101a1c00f0ceb30000c0600002407000c5e2b70019
:101a2c00c5c2bf000080fb004400de0061406000c6
:101a3c006140600000414000512c20009140780032
:101a4c00d0cfb30000c0600002407000c5e2b70008
:101a5c00c5c2bf000080fb000000d10061406000e7
:101a6c00c700dd00c4c2bf000074a10001407000bb
:101a7c00c4e2b700c4c2bf000080fb004700de0018
:101a8c00614060004601dd00412c2000914078004f
:101a9c00f0cbb30000c0600002407000c4e2b7009d
:101aac0000e72f006a14070000192000a514070096
:101abc006000b800008fbe0004003700100020004a
:101acc00010020001e0f40005e974800f0692800be
:101adc0011002000be0f1000ae8f1800f7ff34006d
:101aec002efd3700de0890006e089000008040004c
:101afc0022002000110009000200d80080007800ac
:101b0c002e009000808f500056003d00c542a8006a
:101b1c00c5c2bf000080fb004200de0061406000d7
:101b2c00614060004501dd00512c2000914078009f
:101b3c00f0cdb30000c0600002407000c5e2b700f9
:101b4c00c5e2a900c5c2bf000080fb004700de0053
:101b5c00614060004601dd00512c2000914078006e
:101b6c00f0cbb30000c0600002407000c5e2b700cb
:101b7c00c5c2bf000080fb004600de006140600073
:101b8c00614060004401dd00512c20009140780040
:101b9c00f0ceb30000c0600002407000c5e2b70098
:101bac00c5c2bf000080fb004400de006140600045
:101bbc006140600000414000512c200091407800b1
:101bcc00d0cfb30000c0600002407000c5e2b70087
:101bdc00c5c2bf000080fb000000d1006140600066
:101bec00c700dd00c4c2bf000074a100014070003a
:101bfc00c4e2b700c4c2bf000080fb004700de0097
:101c0c00614060004601dd00412c200091407800cd
:101c1c00f0cbb30000c0600002407000c4e2b7001b
:101c2c0080da2f000a1407008025200045140700d5
:101c3c006000b800008fbe000400370010002000c8
:101c4c00010020001e0f40005e974800f06928003c
:101c5c0011002000be0f1000ae8f1800f7ff3400eb
:101c6c00cefc3700c5a2a800c5c2bf000080fb0097
:101c7c004500de0061406000614060004401dd0011
:101c8c00512c200091407800f0ceb30000c06000d1
:101c9c0002407000c5e2b700c5c2bf000080fb0067
:101cac004400de0061406000c700dd00c4c2bf001c
:101cbc000074a10001407000c4e2b700c4c2bf00b0
:101ccc000080fb004700de00614060004201dd0047
:101cdc00512c200091407800b0cfb30000c06000c0
:101cec0002407000c5e2b700c5c2bf000080fb0017
:101cfc004200de0061406000614060000041400035
:101d0c00512c200091407800d0cfb30000c060006f
:101d1c0002407000c5e2b700c5c2bf000080fb00e6
:101d2c000000d10061406000614060004601dd00b0
:101d3c00412c200091407800f0cbb30000c0600033
:101d4c0002407000c4e2b700c4c2bf000080fb00b8
:101d5c004600de0061406000614060004601dd002d
:101d6c00512c200091407800f0cbb30000c06000f3
:101d7c0002407000c5e2b700c5c2bf000080fb0086
:101d8c004600de0061406000c700dd00c5c2bf0038
:101d9c000074a10001407000c5e2b7000000eb0028
:101dac00ab1307000000eb00e61307006000b8005f
:101dbc00008fbe000400370010002000010020003e
:101dcc001e0f40005e974800f069280011002000ab
:101ddc00be0f1000ae8f1800f7ff34006ffc3700f9
:101dec000200fa00461d07000000eb00000f78000f
:101dfc000d0037009e00e800204c210000804000c0
:101e0c0010407800004178009e007800204c2100a2
:101e1c00008040001040780080407800c0cdb300b6
:101e2c00631d07001e8fe8009e007800700d2000d7
:101e3c00808f5000efff3600351d07000080fa0040
:101e4c00000006000200fa00881f78002c1d070015
:101e5c000000eb00000f78000d0037001e04e800b6
:101e6c009e007800204c210000804000104078003b
:101e7c0080407800c0cdb300291d07008040780059
:101e8c00204c210000004400014878001e8fe8001f
:101e9c009e007800700d2000808f5000efff360000
:101eac001b1d07004f0478000080fa00000006009c
:101ebc000600fa00000f78001e007800200798003a
:101ecc002e009000e10f50000a0032002e0090000e
:101edc00e20f50000a0032002e0090000000e000db
:101eec000100320009003700c0c0b30005f5b7008f
:101efc000900370080c0b30005f5b70006003700b5
:101f0c0020c0b30005f5b700030037000080eb00dc
:101f1c0010079800020037000000eb001007980033
:101f2c001e0090000080fa00000006000400fa0079
:101f3c00000f7800400420009e0f100006003200b5
:101f4c00100120009e0f100003003200300320000f
:101f5c009e0f100005003a001e007800f5f4b70043
:101f6c000000eb0010079800020037000080eb0027
:101f7c00100798001e0090000080fa000000060078
:101f8c000400fa00000f78001e00e000150032007b
:101f9c00000220009e0f10001200320000032000ef
:101fac009e0f10000f003200000420009e0f100046
:101fbc000c003200000520009e0f100009003200ba
:101fcc00000620009e0f10000600320000062000c4
:101fdc009e0f100003003200000120009e0f100025
:101fec0005003a001e007800eff4b7000000eb008b
:101ffc0010079800020037000080eb0010079800d3
:10200c001e0090000080fa00000006000a00fa0092
:10201c002007980031079800ae0090003e00900019
:10202c00808f5000030039000080eb0040079800bf
:10203c001e003700be00900030382000808f50000a
:10204c00030036000080eb004007980017003700b3
:10205c002e0090000000e900200798002e00900050
:10206c00204798002e0090004800de003047980072
:10207c003e009000004f78003e0090004800de00cb
:10208c00104798003e409000cbf4b7002e409000d3
:10209c00cdf4b7001e409000d3f4b7001e4078007a
:1020ac00d5f4b7000000eb00400798004e009000fc
:1020bc000080fa00000006000a00fa0020079800d1
:1020cc0031079800ae0090003e009000808f5000c9
:1020dc00030039000080eb00400798001b0037001c
:1020ec00be009000301f2000808f5000030036008f
:1020fc000080eb0040079800140037002e00900081
:10210c00204798002e0090004800de0030479800d1
:10211c003e009000004f78003e0090004800de002a
:10212c00104798003e409000cff4b7002e4090002e
:10213c00d1f4b7001e409000d7f4b7001e407800d1
:10214c00d9f4b7000000eb00400798004e00900057
:10215c000080fa00000006000e00fa00300798001c
:10216c004107980052079800be0090004e00900066
:10217c00808f5000030039000080eb00600798004e
:10218c002b003700ce009000301f2000808f5000b5
:10219c00030036000080eb00600798002400370035
:1021ac00de00900030382000808f50000300360095
:1021bc000080eb00600798001d0037003e00900087
:1021cc00404798003e0090004800de0050479800c1
:1021dc004e009000204798004e0090004800de0012
:1021ec00304798005e009000104798005e00900009
:1021fc004800de00004f78005e40900053f5b700b9
:10220c004e40900055f5b7003e40900057f5b70092
:10221c002e40900059f5b7001e4078005bf5b700d2
:10222c001e4090005df5b7000000eb0060079800c1
:10223c006e0090000080fa00000006000600fa0014
:10224c0010079800210798001e0090000000e00085
:10225c00060032002e0090000000e0000300320067
:10226c00a0ccb300004f78000e0037001e00900089
:10227c000000e00003003200a0c4b300004f78005f
:10228c00080037002e0090000000e0000300320030
:10229c00a0c8b300004f780002003700a0c0b30004
:1022ac00004f78001e407800f1f4b7000080fa006f
:1022bc00000006000600fa002047980031479800fd
:1022cc000000eb00000f7800100037009e00780033
:1022dc00204c210000804000904078002e4090005f
:1022ec0080cf500008003a001e00e800214c21006d
:1022fc0001004000be409000014878000000eb0057
:10230c0020079800070037001e8fe8009e00780019
:10231c00700d2000808f5000ecff36008080eb00a9
:10232c00210798002e0090000080fa0000000600a3
:10233c000800fa0020479800210798000000eb00e5
:10234c00000f7800110037009e007800204c21000f
:10235c0000804000904078002e40900080cf5000cc
:10236c0009003a009e00e800204c2100008040004b
:10237c00904078002e009000014878000000eb009f
:10238c0030079800070037001e8fe8009e00780089
:10239c00700d2000808f5000ebff36000080eb00aa
:1023ac00300798003e0090000080fa000000060004
:1023bc000200fa00004f7800114798001e40900070
:1023cc00dbf4b7001e407800ddf4b7000080fa00a3
:1023dc00000006000800fa00004f78001147980032
:1023ec00224798003347980044479800f0c4b30044
:1023fc009e4f1000030036000080eb003007980061
:10240c000c0037001e407800dff4b7001e4090002f
:10241c00e1f4b7002e409000e3f4b7004e4090007a
:10242c00e5f4b7003e409000e7f4b7000000eb0085
:10243c00300798003e0090000080fa000000060073
:10244c000400fa00008fbe001e00be004a09dd0029
:10245c004600de0000007100c608de00ebf4b70099
:10246c001e00be004209dd004e00de0000007100bf
:10247c00ce08de00e9f4b7000040eb00edf4b70045
:10248c000080fa00000006000200fa00004f7800fd
:10249c001e407800f7f4b7000080fa000000060038
:1024ac000200fa00000f78001e00e0000500320068
:1024bc0007d5bf0001c8b3000140700007f5b70095
:1024cc000300370007d5bf000074a10007f5b70063
:1024dc000080fa00000006000400fa00004f7800ab
:1024ec0011479800224798001e4078000bf5b70062
:1024fc001e4090000df5b7002e4090000ff5b70070
:10250c000080fa00000006000200fa00004f78007c
:10251c00114798001e4078007f4060000045b000d5
:10252c0011f5b7001e40900013f5b7000080fa00bb
:10253c00000006000600fa001007980041479800ba
:10254c004e4090000000fb00630060004500dd0081
:10255c008040780000c8b30000c0400099f5b70077
:10256c000000eb00000f78000d0037001e00780013
:10257c000000400032052000000141001e007800e0
:10258c00800078001e009000008040009040780091
:10259c00204c210000004100014878001e0fe8008b
:1025ac001e007800e10f5000f0ff36000080fa00aa
:1025bc00000006000000fa00511b070099d5bf006f
:1025cc000041780098d5bf0080407800c0cdb300a2
:1025dc00771b07004e1b0700a15221009140780089
:1025ec0014d5bf00020007000080fa0000000600ae
:1025fc000600fa0040479800514798000000eb0095
:10260c00000f78003e1b07000000eb00100798003d
:10261c001f0037009e009000204c210000804000dd
:10262c00904078004e40900080cf5000150039004b
:10263c009e009000204c21000080400090407800cb
:10264c005e40900080cf50000e003e001e009000b7
:10265c008000e800204c21000080400010407800f1
:10266c00004178009e009000204c2100008040002a
:10267c001040780080407800c0cdb3004c1b0700a0
:10268c001e0fe8001e0090000080e8001007980064
:10269c009e009000700d2000808f5000ddff3600f2
:1026ac001b1b07001e0078000080fa0000000600cb
:1026bc000400fa00100798000000eb00000f7800ef
:1026cc000d0037001e00780000004000b20620000c
:1026dc00000141001e007800800078001e00900070
:1026ec000080400090407800204c21000000410008
:1026fc00014878001e0fe8001e007800e10f500022
:10270c00f0ff36000080fa00000006000200fa001c
:10271c00004f7800114798001e4078003ff5b70035
:10272c001e40900041f5b7000080fa000000060042
:10273c000200fa00004f7800114798001e40780004
:10274c0043f5b7001e40900045f5b7000080fa0035
:10275c00000006000200fa00004f780011479800b4
:10276c001e40780047f5b7001e40900049f5b700b1
:10277c000080fa00000006000200fa00004f78000a
:10278c001e80fb004400dd006f4040005ff5b70089
:10279c000080fa00000006000200fa00004f7800ea
:1027ac00114798001e80fb004400dd00804078003b
:1027bc001e4090006f40600000c0400061f5b70003
:1027cc000080fa00000006000200fa00004f7800ba
:1027dc00114798001e4090000080fb004400dd0073
:1027ec00804078001e4078006f40600000c04000c0
:1027fc0063f5b7000080fa00000006000400fa0040
:10280c00008fbe001e00be004088de00cf80de00c0
:10281c0065f5b7001e00be004809dd004800de006b
:10282c0000007100c888de0067f5b7001e00780054
:10283c0069f5b7000080fa00000006000200fa00fb
:10284c00004f78001e4078006bf5b7000080fa004e
:10285c00000006000400fa00000f78001107980031
:10286c001e0078004800de0071f5b7001e007800ed
:10287c0073f5b7001e0090004800de0075f5b70038
:10288c001e00900077f5b7000080fa0000000600eb
:10289c000600fa00004f7800114798002247980074
:1028ac003347980044479800554798002e409000b5
:1028bc0079f5b7003e4090007bf5b7001e407800dc
:1028cc007df5b7001e4090007ff5b7004e4090009c
:1028dc0081f5b7005e40900083f5b7000080fa00e8
:1028ec00000006000a00fa00000f7800110798009b
:1028fc002207980033079800200d20001e0f40007f
:10290c001e009000200db000100798002e009000c3
:10291c0067004000200798003e00900067004000d0
:10292c00300798009e00900020352000808f5000ca
:10293c00030036000080eb00400798003900370098
:10294c00be009000701e2000808f500003003600e7
:10295c000080eb0040079800320037001e0090000a
:10296c009e0f100004003100ae0090003e0090005d
:10297c00808f5000030039000080eb004007980066
:10298c0028003700501a20009e0f10000c00360053
:10299c009e00900090272000808f500008003e0081
:1029ac00ae009000700a2000808f500004003600aa
:1029bc00be00900060142000808f50000300360091
:1029cc000080eb0040079800160037001e007800ce
:1029dc004800de0085f5b7001e00780087f5b700cb
:1029ec001e0090004800de0089f5b7001e00900024
:1029fc008bf5b7002e0090004800de008df5b70077
:102a0c002e0090008ff5b7003e0090004800de00cd
:102a1c0091f5b7003e00900093f5b7000000eb0075
:102a2c00400798004e0090000080fa00000006005d
:102a3c000600fa0010079800210798001e0090006d
:102a4c000000e000060032002e0090000000e000c4
:102a5c0003003200c0c3b300004f78000e003700f3
:102a6c001e0090000000e00003003200c0c2b30062
:102a7c00004f7800080037002e0090000000e000a6
:102a8c0003003200c0c1b300004f780002003700d1
:102a9c00c0c0b300004f78001e40780095f5b70019
:102aac000080fa00000006000200fa00000f780017
:102abc001e00e00005003200f9d4bf00f1c7b300de
:102acc0001406000f9f4b70004003700f9d4bf00ee
:102adc0001c8b30001407000f9f4b7000080fa009f
:102aec00000006000400fa00000f7800110798009f
:102afc001e00e00005003200f9d4bf00f1cbb3009a
:102b0c0001406000f9f4b70004003700f9d4bf00ad
:102b1c0001c4b30001407000f9f4b7001e0090002e
:102b2c000000e00005003200f9d4bf00f1cdb30085
:102b3c0001406000f9f4b70004003700f9d4bf007d
:102b4c0001c2b30001407000f9f4b7000080fa0034
:102b5c00000006000a00fa00efd4bf000080fb0062
:102b6c004007980000032000ce009000808f50009a
:102b7c003100320000032000ce009000808f500006
:102b8c000b003c004e009000f00f50002200320071
:102b9c0000022000ce009000808f500022003200f6
:102bac004e0090000000e0001700320036003700a5
:102bbc0000052000ce009000808f500026003200cf
:102bcc0000052000ce009000808f500005003c00d6
:102bdc0000042000ce009000808f50001a003200bc
:102bec002900370000062000ce009000808f500096
:102bfc001d00320000072000ce009000808f500096
:102c0c001d003200200037000000280001072000c2
:102c1c00008fbe002000370000002000610920005a
:102c2c00008fbe001c003700000024008103200030
:102c3c00008fbe001800370000002200c1012000e8
:102c4c00008fbe001400370000002100e1002000be
:102c5c00008fbe00100037000080200071002000a3
:102c6c00008fbe000c00370000402800310020000f
:102c7c00008fbe000800370000202c00110020003f
:102c8c00008fbe00040037006000b80020079800d9
:102c9c00310798000a00370005d5bf00ec4f5000f3
:102cac0004003a001e00be00000040008180480075
:102cbc00008fbe001e00be00200798003107980050
:102ccc002e009000be0090000080fa00000006006c
:102cdc001000fa002007980031079800420798006e
:102cec0053079800640798005e0090000000e00015
:102cfc00030035005e009000e30f50000300340029
:102d0c000080eb00700798004c0037006e009000bc
:102d1c000000e000030035006e009000e30f50004f
:102d2c00030034000080eb0070079800430037006c
:102d3c0088ff07000001be00606a20000013b80085
:102d4c006010b9000702780000024200606a20009f
:102d5c000098b90000024200840378002e00900015
:102d6c006101b9000600be004af607001007980082
:102d7c0078ff07000001be00606a20000013b80055
:102d8c006010b9000702780000024200606a20005f
:102d9c000098b90000024200840378003e009000c5
:102dac006101b9000600be003af60700000f78007a
:102dbc001e0090004800de00fdf4b7001e009000dd
:102dcc00fff4b7001e0078004800de0001f5b700e4
:102ddc001e00780003f5b7004e0090000000e000e4
:102dec0004003200f9d4bf000044a000f9f4b7008d
:102dfc0004003700f9d4bf00f1ceb30001406000ed
:102e0c00f9f4b7006e009000e34060005e009000a3
:102e1c00630060004200dd0000c14000f9d4bf0037
:102e2c008040780000cfb30000c06000004041003b
:102e3c00f9f4b7000000eb00700798007e009000da
:102e4c000080fa00000006000600fa00000f78006f
:102e5c00110798001e007800200798002e009000a3
:102e6c00e30f5000670032002e009000e30f50007b
:102e7c0007003e002e009000e10f50002e003200a3
:102e8c002e009000e10f500041003e000d00370075
:102e9c002e009000e50f5000940032002e009000a0
:102eac00e50f5000740039002e009000e60f500022
:102ebc00ab0032002e009000e70f5000c50032002e
:102ecc00da0037001e009000e10f50000f003600b2
:102edc00c4c2bf000080fb004600de006140600001
:102eec000004a20061406000614060004601dd000a
:102efc00412c200091407800f0cbb30000c0600062
:102f0c0002407000c4e2b7001e0137001e009000a2
:102f1c0061406000614060004601dd00412c2000f2
:102f2c0091407800f0cbb30000c06000024070000c
:102f3c00c4e2b700130137001e009000e10f5000ef
:102f4c000b003600c4c2bf000080fb004700de004f
:102f5c000004a20061406000c700dd00c4c2bf00d5
:102f6c000074a10001407000c4e2b70005013700f5
:102f7c001e00900061406000c700dd00c4c2bf00ad
:102f8c000074a10001407000c4e2b700fd003700de
:102f9c001e009000e10f50000f003600c5c2bf00ac
:102fac000080fb000000d100614060000004a20022
:102fbc00614060006140600000414000512c2000e5
:102fcc0091407800d0cfb30000c060000240700088
:102fdc00c5e2b700eb0037001e00900061406000b6
:102fec006140600000414000512c2000914078006d
:102ffc00d0cfb30000c0600002407000c5e2b70043
:10300c00e00037001e009000e10f50000f0036006a
:10301c00c5c2bf000080fb004400de0061406000c0
:10302c000004a20061406000614060004401dd00ca
:10303c00512c200091407800f0ceb30000c060000d
:10304c0002407000c5e2b700ce0037001e009000b1
:10305c0061406000614060004401dd00512c2000a3
:10306c0091407800f0ceb30000c0600002407000c8
:10307c00c5e2b700c30037001e009000e10f5000fe
:10308c000f003600c5c2bf000080fb004200de000e
:10309c00614060000004a20061406000614060007b
:1030ac004201dd00512c200091407800b0cfb300dc
:1030bc0000c0600002407000c5e2b700b1003700ec
:1030cc001e00900061406000614060004201dd0024
:1030dc00512c200091407800b0cfb30000c06000ac
:1030ec0002407000c5e2b700a60037001e00900039
:1030fc00e10f50000f003600c5c2bf000080fb007e
:10310c004500de00614060000004a20061406000e8
:10311c00614060004501dd00512c20009140780099
:10312c00f0cdb30000c0600002407000c5e2b700f3
:10313c00940037001e009000614060006140600008
:10314c004501dd00512c200091407800f0cdb300fa
:10315c0000c0600002407000c5e2b7008900370073
:10316c001e009000e10f50000f003600c5c2bf00da
:10317c000080fb004600de00614060000004a200fd
:10318c0061406000614060004601dd00512c200070
:10319c0091407800f0cbb30000c06000024070009a
:1031ac00c5e2b700770037001e0090006140600058
:1031bc00614060004601dd00512c200091407800f8
:1031cc00f0cbb30000c0600002407000c5e2b70055
:1031dc006c0037001e009000e10f50000b00360011
:1031ec00c5c2bf000080fb004700de000004a20047
:1031fc0061406000c700dd00c5c2bf000074a100c3
:10320c0001407000c5e2b7005e0037001e00900060
:10321c0061406000c700dd00c5c2bf000074a100a2
:10322c0001407000c5e2b700560037001e00900048
:10323c0061406000c700dd00c5c2bf000074a10082
:10324c0001407000c5e2b700c5c2bf000080fb00a2
:10325c004700de00614060004601dd00512c20007b
:10326c0091407800f0cbb30000c0600002407000c9
:10327c00c5e2b700c5c2bf000080fb004600de00ff
:10328c0061406000614060004501dd00512c200070
:10329c0091407800f0cdb30000c060000240700097
:1032ac00c5e2b700c5c2bf000080fb004500de00d0
:1032bc0061406000614060004201dd00512c200043
:1032cc0091407800b0cfb30000c0600002407000a5
:1032dc00c5e2b700c5c2bf000080fb004200de00a3
:1032ec0061406000614060004401dd00512c200011
:1032fc0091407800f0ceb30000c060000240700036
:10330c00c5e2b700c5c2bf000080fb004400de0070
:10331c00614060006140600000414000512c200081
:10332c0091407800d0cfb30000c060000240700024
:10333c00c5e2b700c5c2bf000080fb000000d10091
:10334c0061406000c700dd00c4c2bf000074a10072
:10335c0001407000c4e2b700c4c2bf000080fb0093
:10336c004700de00614060004601dd00412c20007a
:10337c0091407800f0cbb30000c0600002407000b8
:10338c00c4e2b7000080fa00000006000000fa005a
:10339c00c4c2a900c4e2a900c522a900c582a90023
:1033ac00c542a900c5a2a900c5c2a900c5e2a900d1
:1033bc000080fa00000006000200fa00000f7800fe
:1033cc00100020009e0f10000f003600d0c2bf006e
:1033dc000080fb004200de00614060000004a2009f
:1033ec0061406000614060004201dd00012d200061
:1033fc0091407800b0cfb30000c060000240700074
:10340c00d0e2b7000a0037001e007800614060006f
:10341c00614060004201dd00012d200091407800e8
:10342c00b0cfb30000c0600002407000d0e2b70023
:10343c000080fa00000006000200fa00000f78007d
:10344c00100020009e0f10000f003600d0c2bf00ed
:10345c000080fb000000d100614060000004a2006d
:10346c00614060006140600000414000012d20007f
:10347c0091407800d0cfb30000c0600002407000d3
:10348c00d0e2b7000a0037001e00780061406000ef
:10349c006140600000414000012d20009140780007
:1034ac00d0cfb30000c0600002407000d0e2b70083
:1034bc000080fa00000006000000fa00c4c2bf0041
:1034cc000080fb004600de00614060000041780097
:1034dc00024078000080ea008180ea0061406000d0
:1034ec00614060004601dd00412c200091407800d5
:1034fc00f0cbb30000c0600002407000c4e2b70023
:10350c00c4c2bf000080fb004700de000041780011
:10351c00024078000080ea008180ea00614060008f
:10352c00c700dd00c4c2bf000074a10001407000e0
:10353c00c4e2b700c5c2bf000080fb000000d10090
:10354c006140600000417800024078000080ea0091
:10355c008180ea00614060006140600000414000f1
:10356c00512c200091407800d0cfb30000c06000f7
:10357c0002407000c5e2b700c5c2bf000080fb006e
:10358c004400de0061406000004178000240780099
:10359c000080ea008180ea006140600061406000c8
:1035ac004401dd00512c200091407800f0ceb30096
:1035bc0000c0600002407000c5e2b700c5c2bf0089
:1035cc000080fb004200de0061406000004178009a
:1035dc00024078000080ea008180ea0061406000cf
:1035ec00614060004201dd00512c200091407800c8
:1035fc00b0cfb30000c0600002407000c5e2b7005d
:10360c00c5c2bf000080fb004500de0061406000c9
:10361c0000417800024078000080ea008180ea00d6
:10362c0061406000614060004501dd00512c2000cc
:10363c0091407800f0cdb30000c0600002407000f3
:10364c00c5e2b700c5c2bf000080fb004600de002b
:10365c006140600000417800024078000080ea0080
:10366c008180ea0061406000614060004601dd003d
:10367c00512c200091407800f0cbb30000c06000ca
:10368c0002407000c5e2b700c5c2bf000080fb005d
:10369c004700de0000417800024078000080ea001c
:1036ac008180ea0061406000c700dd00c5c2bf0038
:1036bc000074a10001407000c5e2b7000080fa0060
:1036cc00000006000000fa00c4c2bf000080fb002e
:1036dc004600de0061406000004178000240780046
:1036ec000080ea008180ea00614060006140600077
:1036fc004601dd00412c200091407800f0cbb30056
:10370c0000c0600002407000c4e2b7000080fa0004
:10371c00000006000000fa00c4c2bf000080fb00dd
:10372c004700de0000417800024078000080ea008b
:10373c008180ea0061406000c700dd00c4c2bf00a8
:10374c000074a10001407000c4e2b7000080fa00d0
:10375c00000006000000fa00c5c2bf000080fb009c
:10376c000000d10061406000004178000240780008
:10377c000080ea008180ea006140600061406000e6
:10378c0000414000512c200091407800d0cfb30074
:10379c0000c0600002407000c5e2b7000080fa0073
:1037ac00000006000000fa00c5c2bf000080fb004c
:1037bc004400de0061406000004178000240780067
:1037cc000080ea008180ea00614060006140600096
:1037dc004401dd00512c200091407800f0ceb30064
:1037ec0000c0600002407000c5e2b7000080fa0023
:1037fc00000006000000fa00c5c2bf000080fb00fc
:10380c004200de0061406000004178000240780018
:10381c000080ea008180ea00614060006140600045
:10382c004201dd00512c200091407800b0cfb30054
:10383c0000c0600002407000c5e2b7000080fa00d2
:10384c00000006000000fa00c5c2bf000080fb00ab
:10385c004500de00614060000041780002407800c5
:10386c000080ea008180ea006140600061406000f5
:10387c004501dd00512c200091407800f0cdb300c3
:10388c0000c0600002407000c5e2b7000080fa0082
:10389c00000006000000fa00c5c2bf000080fb005b
:1038ac004600de0061406000004178000240780074
:1038bc000080ea008180ea006140600061406000a5
:1038cc004601dd00512c200091407800f0cbb30074
:1038dc0000c0600002407000c5e2b7000080fa0032
:1038ec00000006000000fa00c5c2bf000080fb000b
:1038fc004700de0000417800024078000080ea00ba
:10390c008180ea0061406000c700dd00c5c2bf00d5
:10391c000074a10001407000c5e2b7000080fa00fd
:10392c00000006000200fa00000f78009e007800ec
:10393c0020a621005f1107000080fa00000006009d
:10394c000000fa0020a621008a1107000080fa006e
:10395c00000006000200fa00000f78001e00e000d4
:10396c00030035009e00780020a62100a911070055
:10397c000080fa00000006000000fa0080d6bf00ac
:10398c000004e0000b003a008000eb007000200007
:10399c002dfd070080d6bf000080fb001100200029
:1039ac0029fd070080d6bf000040e80080f6b70074
:1039bc001b00370080d6bf00e74f50000c003a00c8
:1039cc0080d6bf000080fb000000e9008000eb0007
:1039dc001dfd070080d6bf000080fb0011002000f9
:1039ec0019fd07000040eb0080f6b7000c00370013
:1039fc0080d6bf000080fb000000e9008000eb00d7
:103a0c0011fd070080d6bf000080fb0011002000d4
:103a1c000dfd070080d6bf000040e80080f6b7001f
:103a2c000080fa00000006000200fa0081d6bf00f8
:103a3c000080fb00000f78001e007800e20f5000a1
:103a4c001c0032001e007800e20f500007003c0002
:103a5c001e0078000000e0000b0032001e00780011
:103a6c00e10f50000c003200230037001e007800dc
:103a7c00e30f5000160032001e007800e40f5000d7
:103a8c001a0032001c003700210020000000eb005f
:103a9c00edfc07001800370021002000100020006a
:103aac00e9fc07002100200070002000e6fc070064
:103abc00110037002100200020002000e2fc07004c
:103acc002100200060002000dffc07000a00370006
:103adc002100200030002000dbfc0700210020002a
:103aec0050002000d8fc0700030037002100200004
:103afc0040002000d4fc070081d6bf00e34f5000eb
:103b0c0004003e0081d6bf000040e80081f6b700fb
:103b1c00020037000040eb0081f6b7000080fa008d
:103b2c00000006000000fa0082d6bf000004e0008e
:103b3c000f003a0090d6bf000004e0000c003200e9
:103b4c0010c0b30082f6b7008000eb000000eb0061
:103b5c00bdfc070082d6bf000080fb0011002000d6
:103b6c00b9fc07000040eb0090f6b7002b003700c3
:103b7c0082d6bf000004e0000f003a0090d6bf00d0
:103b8c000004e0000c003a0070c0b30082f6b700ed
:103b9c008000eb000000eb00abfc070082d6bf00fe
:103bac000080fb0011002000a7fc070010c0b30030
:103bbc0090f6b7001900370082d6bf00e74f5000cf
:103bcc000a003a000040eb0082f6b7008000eb00e0
:103bdc00700020009cfc070082d6bf000080fb0018
:103bec001100200098fc07000c00370082d6bf00a3
:103bfc00e14f500009003a000040eb0082f6b7009c
:103c0c008000eb00100020008ffc070082d6bf0064
:103c1c000080fb00110020008bfc07000080fa00e4
:103c2c00000006000200fa0083d6bf000080fb00f3
:103c3c00000f78001e007800e10f500015003200d4
:103c4c001e007800e10f500004003c001e007800bc
:103c5c000000e000080032001a0037001e00780057
:103c6c00e20f5000120032001e007800e30f5000eb
:103c7c001300320013003700210020000000eb007d
:103c8c0071fc070021002000400020006efc0700a2
:103c9c000c00370021002000100020006afc0700f7
:103cac00210020003000200067fc070005003700d1
:103cbc00210020002000200063fc070001003700d9
:103ccc00b2fd070083d6bf00e24f500004003e0057
:103cdc0083d6bf000040e80083f6b700020037002f
:103cec000040eb0083f6b7000080fa0000000600ed
:103cfc000200fa0084d6bf000080fb00000f7800a1
:103d0c001e007800e10f5000150032001e007800f4
:103d1c00e10f500004003c001e0078000000e000a1
:103d2c00080032001a0037001e007800e20f500025
:103d3c00120032001e007800e30f50001300320016
:103d4c0013003700210020000000eb003efc0700b0
:103d5c0021002000400020003bfc07000c00370035
:103d6c00210020007000200037fc070021002000fb
:103d7c005000200034fc0700050037002100200013
:103d8c006000200030fc0700010037007ffd0700b9
:103d9c0084d6bf00e24f500004003e0084d6bf0022
:103dac000040e80084f6b700020037000040eb004a
:103dbc0084f6b7000080fa00000006002400fa0028
:103dcc0027100700000037000000eb00fd13070070
:103ddc00100f980010002000fa130700000f980035
:103dec0020002000f7130700700798003000200017
:103dfc00f41307006007980040002000f11307003f
:103e0c005007980050002000ee1307004007980060
:103e1c0060002000eb1307003007980070002000b2
:103e2c00e8130700200798000000eb001f140700a0
:103e3c0010179800100020001c14070000179800a1
:103e4c002000200019140700700f9800300020008b
:103e5c0016140700600f9800400020001314070090
:103e6c00500f98005000200010140700400f9800cd
:103e7c00600020000d140700300f98007000200027
:103e8c000a140700200f9800be009000803e20000e
:103e9c00808f500016003400ae009000803e200051
:103eac00808f500012003400800c2000a50b0700fe
:103ebc0080f32f00660b07006000b800008fbe0077
:103ecc000500370000000000100020000100200059
:103edc001e0f40005e974800f052270001002000a2
:103eec00be0f1000ae8f1800f6ff3400b6ff37007f
:103efc00fe009000803e2000808f50000c003c00a3
:103f0c009e089000803e2000808f500008003c00ee
:103f1c008e089000803e2000808f500004003c00f2
:103f2c00ae009000803e2000808f500012003400c4
:103f3c0080f32f00830b0700800c2000440b07003c
:103f4c006000b800008fbe000500370000000000c4
:103f5c0010002000010020001e0f40005e9748005a
:103f6c00f052270001002000be0f1000ae8f180089
:103f7c00f6ff340094ff3700ce009000803e200006
:103f8c00808f500004003c00be009000803e20005a
:103f9c00808f500012003400800c2000690b070049
:103fac0080f32f002a0b07006000b800008fbe00c2
:103fbc000500370000000000100020000100200068
:103fcc001e0f40005e974800f052270001002000b1
:103fdc00be0f1000ae8f1800f6ff34007aff3700ca
:103fec00fe009000703e2000808f500076ff3c0059
:103ffc009e089000703e2000808f500072ff3c00a5
:10400c008e089000703e2000808f50006eff3c00a8
:10401c00ae009000703e2000808f50006aff3c0084
:10402c00ce009000703e2000808f500066ff3c0058
:10403c00be009000703e2000808f500062ff3c005c
:10404c008e109000f0f92000808f50000400340096
:10405c00fe089000f0f92000808f500060003c00ba
:10406c009e109000f0f92000808f50000400340066
:10407c00ae089000f0f92000808f500058003c00f2
:10408c00c5e2a800c5c2bf000080fb004700de00ef
:10409c00614060004601dd00412c20009140780019
:1040ac00f0cbb30000c0600002407000c4e2b70067
:1040bc00c5c2a900c5c2bf000080fb004600de00df
:1040cc0061406000614060004501dd00512c200022
:1040dc0091407800f0cdb30000c060000240700049
:1040ec00c5e2b700c5c2bf000080fb004500de0082
:1040fc0061406000614060004201dd00512c2000f5
:10410c0091407800b0cfb30000c060000240700056
:10411c00c5e2b700c5c2bf000080fb004200de0054
:10412c0061406000614060004401dd00512c2000c2
:10413c0091407800f0ceb30000c0600002407000e7
:10414c00c5e2b700c5c2bf000080fb004400de0022
:10415c00614060006140600000414000512c200033
:10416c0091407800d0cfb30000c0600002407000d6
:10417c00c5e2b700c5c2bf000080fb000000d10043
:10418c0061406000c700dd00c4c2bf000074a10024
:10419c0001407000c4e2b70000ce2f00ac0a07004b
:1041ac0000ce2f00e70a07006000b800008fbe00a9
:1041bc000500370000000000100020000100200066
:1041cc001e0f40005e974800f0232400f1002000f1
:1041dc00be0f1000ae8f1800f6ff3400fafe370049
:1041ec008e109000f0f92000808f500004003400f5
:1041fc00fe089000f0f92000808f500055003c0024
:10420c00c5c2a900c5c2bf000080fb004600de008d
:10421c0061406000614060004501dd00512c2000d0
:10422c0091407800f0cdb30000c0600002407000f7
:10423c00c5e2b700c5c2bf000080fb004500de0030
:10424c0061406000614060004201dd00512c2000a3
:10425c0091407800b0cfb30000c060000240700005
:10426c00c5e2b700c5c2bf000080fb004200de0003
:10427c0061406000614060004401dd00512c200071
:10428c0091407800f0ceb30000c060000240700096
:10429c00c5e2b700c5c2bf000080fb004400de00d1
:1042ac0061406000c700dd00c5c2bf000074a10002
:1042bc0001407000c5e2b700c5c2bf000080fb0022
:1042cc004700de00614060004601dd00412c20000b
:1042dc0091407800f0cbb30000c060000240700049
:1042ec00c4e2b700c522a800c5c2bf000080fb0015
:1042fc000000d10061406000c700dd00c4c2bf00f7
:10430c000074a10001407000c4e2b700c0e02f00af
:10431c004f0a0700401f20008a0a07006000b800ff
:10432c00008fbe00050037000000000010002000c8
:10433c00010020001e0f40005e974800f02324006f
:10434c00f1002000be0f1000ae8f1800f6ff3400f5
:10435c009dfe3700ee08900070bb2000808f50004f
:10436c0004003400de08900070bb2000808f5000e9
:10437c0054003c00c5c2a900c5c2bf000080fb00b0
:10438c004600de0061406000614060004501dd00d8
:10439c00512c200091407800f0cdb30000c060009b
:1043ac0002407000c5e2b700c5c2bf000080fb0030
:1043bc004500de006140600061406000004140004b
:1043cc00512c200091407800d0cfb30000c0600089
:1043dc0002407000c5e2b700c5c2bf000080fb0000
:1043ec000000d10061406000c700dd00c4c2bf0006
:1043fc000074a10001407000c4e2b700c4c2bf0049
:10440c000080fb004700de00c700dd00c5c2bf0016
:10441c000074a10001407000c5e2b700c5c2bf0026
:10442c000080fb004700de00614060004601dd00bb
:10443c00412c200091407800f0cbb30000c060000c
:10444c0002407000c4e2b700c542a800c5c2bf005c
:10445c000080fb004200de006140600061406000b3
:10446c004401dd00512c200091407800f0ceb300c7
:10447c0000c0600002407000c5e2b700c0e02f0031
:10448c00f3090700401f20002e0a07006000b80047
:10449c00008fbe0005003700000000001000200057
:1044ac00010020001e0f40005e974800f0232400fe
:1044bc00f1002000be0f1000ae8f1800f6ff340084
:1044cc0041fe3700ce089000f0f92000808f50009c
:1044dc0004003400be089000f0f92000808f5000da
:1044ec0054003c00c522a900c5c2bf000080fb00df
:1044fc000000d10061406000c700dd00c4c2bf00f5
:10450c000074a10001407000c4e2b700c4c2bf0037
:10451c000080fb004700de00614060004201dd00ce
:10452c00512c200091407800b0cfb30000c0600047
:10453c0002407000c5e2b700c5c2bf000080fb009e
:10454c004200de0061406000614060004401dd001b
:10455c00512c200091407800f0ceb30000c06000d8
:10456c0002407000c5e2b700c5c2bf000080fb006e
:10457c004400de0061406000c700dd00c5c2bf0022
:10458c000074a10001407000c5e2b700c5c2bf00b5
:10459c000080fb004700de00614060004601dd004a
:1045ac00412c200091407800f0cbb30000c060009b
:1045bc0002407000c4e2b700c5c2a800c5c2bf006b
:1045cc000080fb004600de0061406000614060003e
:1045dc004501dd00512c200091407800f0cdb30056
:1045ec0000c0600002407000c5e2b700401f200010
:1045fc0097090700c0e02f00d20907006000b8003f
:10460c00008fbe00050037000000000010002000e5
:10461c00010020001e0f40005e974800f02324008c
:10462c00f1002000be0f1000ae8f1800f6ff340012
:10463c00e5fd37009e109000f0f92000808f5000af
:10464c0004003400ae089000f0f92000808f500078
:10465c0058003c00c5e2a800c5c2bf000080fb00aa
:10466c004700de00614060004601dd00412c200067
:10467c0091407800f0cbb30000c0600002407000a5
:10468c00c4e2b700c5c2a900c5c2bf000080fb00d0
:10469c004600de0061406000614060004501dd00c5
:1046ac00512c200091407800f0cdb30000c0600088
:1046bc0002407000c5e2b700c5c2bf000080fb001d
:1046cc004500de0061406000614060004201dd0099
:1046dc00512c200091407800b0cfb30000c0600096
:1046ec0002407000c5e2b700c5c2bf000080fb00ed
:1046fc004200de0061406000614060004401dd006a
:10470c00512c200091407800f0ceb30000c0600026
:10471c0002407000c5e2b700c5c2bf000080fb00bc
:10472c004400de00614060006140600000414000d8
:10473c00512c200091407800d0cfb30000c0600015
:10474c0002407000c5e2b700c5c2bf000080fb008c
:10475c000000d10061406000c700dd00c4c2bf0092
:10476c000074a10001407000c4e2b70000ce2f001d
:10477c003709070000ce2f00720907006000b8004f
:10478c00008fbe0005003700000000001000200064
:10479c00010020001e0f40005e974800f02324000b
:1047ac00f1002000be0f1000ae8f1800f6ff340091
:1047bc0085fd37009e109000f0762100808f500010
:1047cc001c0034008e109000f0762100808f500079
:1047dc0018003400fe08900070b52100808f500046
:1047ec0014003400ee08900070b52100808f50004a
:1047fc0010003400de08900070b52100808f50004e
:10480c000c003400ae08900070b52100808f500071
:10481c0008003400ce08900070b52100808f500045
:10482c0004003400be08900070b52100808f500049
:10483c0065fd3c00c5a2a800c5c2bf000080fb00fe
:10484c004500de0061406000614060004401dd0015
:10485c00512c200091407800f0ceb30000c06000d5
:10486c0002407000c5e2b700c5c2bf000080fb006b
:10487c004400de0061406000c700dd00c4c2bf0020
:10488c000074a10001407000c4e2b700c4c2bf00b4
:10489c000080fb004700de00614060004201dd004b
:1048ac00512c200091407800b0cfb30000c06000c4
:1048bc0002407000c5e2b700c5c2bf000080fb001b
:1048cc004200de0061406000614060000041400039
:1048dc00512c200091407800d0cfb30000c0600074
:1048ec0002407000c5e2b700c5c2bf000080fb00eb
:1048fc000000d10061406000614060004601dd00b5
:10490c00412c200091407800f0cbb30000c0600037
:10491c0002407000c4e2b700c4c2bf000080fb00bc
:10492c004600de0061406000614060004601dd0031
:10493c00512c200091407800f0cbb30000c06000f7
:10494c0002407000c5e2b700c5c2bf000080fb008a
:10495c004600de0061406000c700dd00c5c2bf003c
:10496c000074a10001407000c5e2b70000322000c5
:10497c00b708070000ce2f00f20807006000b8004f
:10498c00008fbe0005003700000000001000200062
:10499c00010020001e0f40005e974800f023240009
:1049ac00f1002000be0f1000ae8f1800f6ff34008f
:1049bc0005fd37000000fa0020f5200071110700fa
:1049cc00cb1107000000e000fdff32000080fa0070
:1049dc00000006004200fa00600f9800710f98006a
:1049ec00021798006e089000cf80de0038ef0700a9
:1049fc0002002000f337240060ef0700400f9800fe
:104a0c00510f98007e089000cf80de0030ef070039
:104a1c0002002000f337240058ef0700200f980005
:104a2c00310f98000e109000cf80de0028ef0700a9
:104a3c0002002000f337240050ef0700000f98000d
:104a4c00110f98002e099000be0990004e0890009e
:104a5c00de0890008bef07000000e00001003c0036
:104a6c00050037004e089000de089000501f98009b
:104a7c00611f9800040037002e089000be089000bb
:104a8c00501f9800611f98000e0990009e0990001d
:104a9c005e189000ee1890007aef07000000e0001e
:104aac0001003c00160037002e099000be09900052
:104abc004e089000de08900072ef07000000e00046
:104acc0001003c00050037004e089000de08900005
:104adc00301f9800411f9800040037002e089000ea
:104aec00be089000301f9800411f98003e1890009f
:104afc00ce189000701f9800012798000400370012
:104b0c000e0890009e089000701f980001279800d6
:104b1c007e1890008e209000600798007107980016
:104b2c002e099000be0990004e089000de089000ff
:104b3c0056ef07000000e0000100350005003700cb
:104b4c004e089000de08900070179800011f980026
:104b5c00040037002e089000be08900070179800d3
:104b6c00011f98000e0990009e0990007e10900085
:104b7c008e18900045ef07000000e00001003500a2
:104b8c00160037002e099000be0990004e089000c8
:104b9c00de0890003def07000000e000010035004a
:104bac00050037004e089000de0890005017980062
:104bbc0061179800040037002e089000be08900082
:104bcc0050179800611798005e109000ee1090003e
:104bdc00101f9800211f9800040037000e08900049
:104bec009e089000101f9800211f98001e1890001e
:104bfc00ae18900040079800510798006000b8006c
:104c0c0020079800310798004e019000de019000bb
:104c1c006e009000fe0090001eef0700008fbe009b
:104c2c006011b8001e00be0078ef07000000e00025
:104c3c0001003a004f0037004e099000de09900049
:104c4c006e009000fe00900010ef07000000e000e6
:104c5c0001003200200037000e0990009e099000e0
:104c6c002e089000be0890000aef07001e01be003f
:104c7c00c2ee07003017980041179800fe0890000c
:104c8c000e109000808f500005003d0000002000a9
:104c9c00010c24001017980021179800030037000e
:104cac006000b80010179800211798001e11900092
:104cbc00ae1190003e109000ce109000f6ee070062
:104ccc00020020000327240052ef07002007980061
:104cdc0031079800270037002e099000be0990007c
:104cec006e009000fe009000e8ee07000000e0006f
:104cfc0001003200100037004e099000de099000d0
:104d0c000e0890009e089000e2ee07001e01be0007
:104d1c009aee07000200200003002400deee0700dc
:104d2c0002002000032724003aef07002007980018
:104d3c00310798000f0037002e099000be09900033
:104d4c004e089000de089000d2ee07001e01be0057
:104d5c008aee07000200200003082400ceee0700b4
:104d6c0002002000032724002aef070020079800e8
:104d7c00310798002e009000be0090000080fa00d1
:104d8c00000006001200fa006000b80060079800ee
:104d9c0071079800770037006e009000fe009000bd
:104dac00000040008180480022f5200002004000f5
:104dbc00104078008000fb00800f20000080600015
:104dcc00400798006e009000fe009000000040002c
:104ddc008180480022f5200002004000104078003d
:104dec000000fb0067006000c501dd006e00900054
:104dfc00fe009000000040008180480061004000ef
:104e0c00e080480022f520000200400010407800ad
:104e1c008000fb00000e2000008060004380de005c
:104e2c0000807100500798006e009000fe0090000a
:104e3c00000040008180480061004000e080480094
:104e4c0022f5200002004000104078000000fb001a
:104e5c007f0060004300dd00300798003e019000a9
:104e6c00de0090004e009000dafe0700008fbe00be
:104e7c000040eb001057980002002000030c2400a7
:104e8c001e00be007fee07000000e00001003c00a9
:104e9c000200370010c0b300105798001e5090004d
:104eac000004a2000004e0001a003a000040eb00ed
:104ebc000057980002002000832124001e00be0031
:104ecc0072ee07000000e000010035000200370020
:104edc0010c0b300005798000e5090000004a200c0
:104eec000004e0000b003a006e009000fe00900001
:104efc008000400020ff2000808040001000200037
:104f0c00800878002e0090000000e8002007980030
:104f1c00070037006e009000fe00900080004000fb
:104f2c0020ff2000808040000000eb00800878000b
:104f3c002e0090000000e00005003400100020005e
:104f4c0001002000108788002187880003003700ab
:104f5c006000b80010878800218788006e009000e0
:104f6c00fe00900061004000e0804800600798005f
:104f7c00710798006e019000fe019000f004200073
:104f8c0001002000800f5100818f590082ff3400f6
:104f9c000080fa00000006000800fa000000eb0098
:104fac00200798000000eb00100798000000eb00b1
:104fbc00000f7800120037001e00780080004000bf
:104fcc0020ff200000804000900078002e00900010
:104fdc000100400020079800810220001e80400044
:104fec008000400020ff20000080400090007800ee
:104ffc001e00900001004000100798001e0fe800f2
:10500c00700220009e0f1000ebff3400ae009000e9
:10501c001e009000808f500003003d001000200007
:10502c0030079800020037008000eb003107980031
:10503c003e0090000080fa00000006000000fa001c
:10504c00d5ff07000000e00005003200401f2000e3
:10505c00ff060700c0e02f003a07070004003700e6
:10506c00c0e02f00fa060700401f2000350707009c
:10507c000080fa00000006000000fa00401f20002b
:10508c00f3060700401f20002e0707000080fa00df
:10509c00000006001600fa000040eb008f0007002d
:1050ac00e10e0700621007001600200045002000ea
:1050bc00840020004300200002282000e10e200084
:1050cc000000eb000e100700110020001000200063
:1050dc00371007004d100700610b07000000370068
:1050ec000000eb004e0f0700200f9800100020006e
:1050fc004b0f0700100f980020002000480f0700ee
:10510c00000f980030002000450f07007007980032
:10511c0040002000420f070060079800500020005c
:10512c003f0f070050079800600020003c0f07005d
:10513c004007980070002000390f070030079800d6
:10514c00ae08900040062000808f500004003c0008
:10515c00be00900040062000808f50003a003400c2
:10516c0014fe070007ff07000000eb00000f78009b
:10517c004001200001002000100798002107980032
:10518c000d0037001e009000ae0090008000400023
:10519c0020ff200000804000100078001e0f40000f
:1051ac001e009000ae00900061004000e0804800be
:1051bc0010079800210798001e019000ae01900086
:1051cc00b003200001002000800f5100818f590096
:1051dc00ecff3400f00020009e0f1000c0ff3400e4
:1051ec0040822200630b07004e0090002103200038
:1051fc00808040001e089000808f500005003d000c
:10520c00003220009206070000192000cd0607008e
:10521c00b3ff37001e08900021032000808040005f
:10522c004e009000808f500005003d0000192000ba
:10523c008706070000322000c2060700a8ff3700cf
:10524c008dff0700a6ff37008e0890004006200057
:10525c00808f500004003c00fe00900040062000af
:10526c00808f50000700340040822200410b070061
:10527c00003220007606070000ce2f00b106070092
:10528c0097ff3700de00900040062000808f500012
:10529c0004003c00ce00900040062000808f50009f
:1052ac000700340040822200320b070000ce2f0092
:1052bc006706070000322000a206070088ff3700af
:1052cc00408222002b0b07000000eb006006070059
:1052dc000000eb009b06070081ff37000200fa007c
:1052ec00004f780010c0b3009e4f100003003a002e
:1052fc0010c0b30002e8b700020037000040eb001a
:10530c0002e8b7000000eb00001588000000eb007d
:10531c00101588000000eb00201588000000eb0041
:10532c0030158800a802a800a822a800a842a9004d
:10533c00a862a900a882a900a8a2a900a8c2a900d5
:10534c00a8e2a900a902a900a922a900a942a900c2
:10535c00a962a900a982a900a9a2a900a9c2a900b1
:10536c00a9e2a900aa02a900aa22a900aa42a8009f
:10537c00aa62a800aa82a800aaa2a900aac2a9008f
:10538c00aae2a900ab02a900ab22a900ab42a9007a
:10539c00ab62a900ab82a900aba2a900abc2a90069
:1053ac00abe2a900112a200091407800c0cfb300d5
:1053bc0000c06000a1e2b700a042a800012a2000b2
:1053cc009140780000ceb30000c07000a0e2b7009e
:1053dc00212a20009140780030ccb30000c060003e
:1053ec000034a000a2e2b700a342a800512a20007a
:1053fc009140780000ceb30000c060000004a00013
:10540c00a5e2b70002c8bf000004e00007003200ac
:10541c00412a20009140780000ccb30000c060000d
:10542c003041b300a4e2b70007003700412a200046
:10543c009140780000ccb30000c0600071c2b30092
:10544c0001407000a4e2b7008560a9008d60a8003f
:10545c00a1e2a80002c8bf000004e00005003a0069
:10546c000000000041b4800000032000808f500039
:10547c00fbff36000080fa0000000600809fbe0093
:10548c00821f78003400f80000002000a001880082
:10549c000c00fa000040eb0000e8b7000040eb0005
:1054ac0001e8b7008560a90002c8bf000004e00055
:1054bc002d00320000282000000f780031b480004d
:1054cc001e007800100078000001780081804000f8
:1054dc006080200000804000020878001e8fe800e9
:1054ec0031b480001e0078001000780000017800b4
:1054fc00018040000120200080804000608020005e
:10550c0000804000020878001e8fe80031b4800053
:10551c001e007800100078000001780081804000a7
:10552c00004020008080400060802000008040000f
:10553c00020878001e8fe80030b480000000e800fc
:10554c0030b4880031b48000f00f2000808f500000
:10555c006f0136000000eb0030b4880010c0b300bf
:10556c0001e8b7006a013700c0012000501588001f
:10557c00212a20009140780030ccb30000c060009c
:10558c000034a000a2e2b700412a2000914078002c
:10559c0000ccb30000c0600071c2b30001407000c9
:1055ac00a4e2b7004180200091407800d0c3b30042
:1055bc0080cf50000f003a00c00f2000501588001b
:1055cc00212a20009140780030ccb30000c060004c
:1055dc004041b300a2e2b700412a2000914078007c
:1055ec0000ccb30000c060003041b300a4e2b700af
:1055fc005f0037004180200091407800e0c3b30089
:10560c0080cf50002c003a00212a200091407800d5
:10561c0030ccb30000c060000044a000a2e2b70090
:10562c00412a20009140780000ccb30000c06000fb
:10563c007041b300a4e2b70003c8bf000080fb00b8
:10564c00500798005e009000e10f500011003200ee
:10565c00de009000e18f500004003c005e009000e2
:10566c000000e0000800320041003700de0090002e
:10567c00e28f50000a0032005e009000e30f5000f1
:10568c000a0032003a003700c01121005015880082
:10569c0037003700c0212200501588003400370035
:1056ac00c04124005015880031003700c08128000b
:1056bc00501588002e00370004c8bf00e24f500080
:1056cc002b003a00212a20009140780030ccb30006
:1056dc0000c060000044a000a2e2b700412a2000f4
:1056ec009140780000ccb30000c060007041b30062
:1056fc00a4e2b70003c8bf000080fb00400798007d
:10570c00ce009000e18f5000110032004e0090004e
:10571c00e10f500004003c00ce0090000100e000be
:10572c0008003200120037004e009000e20f5000cb
:10573c000a003200ce009000e38f50000a003200c5
:10574c000b003700c01121005015880008003700ed
:10575c00c02122005015880005003700c0412400ec
:10576c005015880002003700c081280050158800b1
:10577c0000282000000f780031b480001e00780053
:10578c0010007800000178008180400060802000cb
:10579c0000804000020878001e8fe80031b48000c1
:1057ac001e00780010007800000178000180400095
:1057bc00012020008080400060802000008040009c
:1057cc00020878001e8fe80031b480001e007800bb
:1057dc00100078000001780081804000004020001b
:1057ec00808040006080200000804000020878002b
:1057fc001e8fe80030b480000000e80030b4880050
:10580c0031b48000f00f2000808f50000200360071
:10581c000000eb0030b488004180200091407800fb
:10582c00e0c3b30080cf500028003a0040b48000a1
:10583c000000e80040b4880041b480001003200050
:10584c00808f5000020036000000eb0040b488004e
:10585c0041b480001e007800100078000001780030
:10586c008180400060e02000008040000208780049
:10587c001e8fe80041b480001e00780010007800f4
:10588c00000178000180400041062000808040002b
:10589c0060e0200000804000020878001e8fe800c5
:1058ac0041b480001e0078001000780000017800e0
:1058bc0001804000810c20008080400060e02000ce
:1058cc0000804000020878007f00370041802000f3
:1058dc0091407800f0c3b30080cf500038003a00fc
:1058ec0003c8bf000080fb00300798003e0090000a
:1058fc00e10f500017003200be009000e18f500005
:10590c0004003c003e0090000000e0000800320063
:10591c006d003700be009000e28f50001600320080
:10592c003e009000e30f50001c0032006600370070
:10593c001e00780010007800907988001e8fe80017
:10594c001e00780010007800d0798800e2e2a800f0
:10595c005d0037001e00780010007800a0798800e8
:10596c001e8fe8001e00780010007800e079880097
:10597c00e302a800540037001e00780010007800e5
:10598c00b07988001e8fe8001e00780010007800a7
:10599c00f0798800e802a8004b0037001e00780060
:1059ac0010007800c07988001e8fe8001e00780077
:1059bc0010007800007a8800e822a8004200370026
:1059cc0004c8bf00e34f50003f003a0003c8bf00bb
:1059dc000080fb0020079800ae009000e18f500083
:1059ec00190032002e009000e10f500004003c0022
:1059fc00ae0090000100e0000800320032003700d9
:105a0c002e009000e20f50001a003200ae00900001
:105a1c00e38f5000220032002b0037001e0078006c
:105a2c0010007800107a88001e8fe8001e007800a5
:105a3c0010007800507a8800e2e2a90010c0b30090
:105a4c0003e8b700200037001e0078001000780033
:105a5c00207a88001e8fe8001e0078001000780065
:105a6c00607a8800e302a90020c0b30003e8b70005
