:020000040000fa
:080000000001040000000000f3
:020000040000fa
:100200002f1021000079220000018800000000006a
:100210000c000700606b22000100200011000700a5
:10022000000020000000e000020032000000020098
:1002300000000000402b0200000000000040da0037
:100240000000fe004440a900000020000000e00083
:100250000300320000002000a00188004440a800f4
:100260000000060091018800800078000000eb008b
:1002700015003700e280400032a0b4009101ba00be
:10028000e280400032a0b4009102ba00e280400057
:1002900032a0b4000002eb00472bde00f507b200ed
:1002a000602ce10004003a000059eb008301e900f2
:1002b000fdff3e00040037006128e100010032002c
:1002c0000082eb00040007001101ba000200e00008
:1002d000e8ff3a00000006003159ba008301e90046
:1002e0000c0032002159ba008301e90008003200f5
:1002f0000400e00003003a00e280400032a0b400b5
:10030000f5ff370011d9ba008301e900faff3a007e
:100310008100e800e180400032a0b4000000060047
:100320000419040000000000e819040000000000a7
:100330002a260400000000008224040000000000bf
:10034000d811040000000000889fbe00e3044000b4
:100350000900a100808f54004a003600e38f54004a
:1003600001003e0049002000b27780000200e0005a
:1003700002003200820078000c00370081ef20007c
:1003800003003700908f5400230036008080e8007f
:10039000110078000000e000faff3a000f0037007b
:1003a000908f54001c0036008080e8001100780017
:1003b0000000e000faff3a001201780081ef20000f
:1003c00003003700908f5400130036008080e8004f
:1003d00011007800820f5000faff3a00a8778000e1
:1003e000890f5400010031000904780008007800ea
:1003f0006d0007000000e00004003a00890f54007f
:10040000200032000804d100f5ff370008187800fa
:1004100031000700d4ff3700110178009201780005
:1004200064805100890f50000300310012009000d9
:100430008008780007003700090041008008780034
:1004400092019000130098001100780012881400a7
:1004500009097800910078000100e00005003200f1
:10046000110090000000e000020032000180e8006e
:10047000010037000000eb00b07788000280e80040
:10048000010037000000eb004f04be000000060032
:10049000000478000600370082004100e077800009
:1004a000e10078000200e800d07788000100010038
:1004b000d2778000f0778000800f5100f6ff39007e
:1004c00000eb2000e077880020022000f077880011
:1004d000080078003b0007000000e0003100320017
:1004e0008080e90091027800e38f52002d003600f1
:1004f0000508a3002b003a00c27780000200e0004c
:1005000002003200828f500004003100020878009f
:10051000c17788001600370003017800920190002f
:100520000300e00002003200818f5100faff390021
:100530001202780004004100808f50001900390039
:10054000810f500003003a00050942008200780044
:10055000070037000300e000030032000580400080
:10056000808f51000f00390093009800110198000e
:10057000110190000200e0000a00320011804000ea
:10058000820f500007003a0060ef20000008eb00e7
:1005900011009000110178009008410010009000b7
:1005a00090009800000006000000e0000300340006
:1005b0000c000700e10f400001003a000000eb00d2
:1005c000000006000c02e20004003d000f42ab00f8
:1005d000020032000f02ab00feff32000040da00e2
:1005e000feff3700889fbe008004780000788000fe
:1005f0000000e00003003a00100007000000e000e7
:100600000a003500007880000900e00002003a008e
:10061000000478000600370000047800090040005c
:10062000060007000000e00001003d000084eb0030
:10063000080078004f04be0000000600800078002b
:100640000000e00004003a0020f02000007888005c
:1006500001017800060037000081eb002010210026
:10066000808f500002003e00017888000001eb00fe
:100670000200780000000600839f68000100e0008f
:1006800002003d0060001000e08018000300e00060
:1006900002003d0060011100e08119000a0107001d
:1006a0004f00e00002003b0060001000e0801800f6
:1006b00000000600889fbe008a9fbe0001057800ea
:1006c0000100e0000400350008003c000000e000ec
:1006d000200032000500370060001000e0801800a4
:1006e00002003b0001f02c001a0037000004be009d
:1006f0006011b8006b0920000982cf0002003900a8
:100700000882cf000441b000694252000e0032005e
:1007100008003b0082817100610164008904d100fe
:100720000884d3008b05e8000442e800f9ff3a0092
:10073000050037000804440089844c008b05e9005b
:100740000442e900fbff3a00ef0007000af0a700af
:1007500001f0a0004f05be004f04be0000000600df
:10076000889fbe008a9fbe008c1f78000c01070086
:100770001301330003866c006450e1002e00320048
:100780006420e100330032006150e1002f003200ac
:100790006120e1003100320085855500eb07b00093
:1007a0000900200008042000050037000804440068
:1007b00089844c000a0031000603430087834b0004
:1007c0000001530081815b00f8ff33000203be008b
:1007d0000800a0000804440089844c00f6ff39009a
:1007e000c639dd00830173000100320013002000d0
:1007f0008904d1000884d3000998a30005003200c1
:100800000800a7000300a0008904d1000884d300d9
:100810008b05e8008904d1000884d3000001eb00b7
:100820000281d200b800070001f0a1000cf0a7007f
:1008300001f0a000eb0037006420e100ed00320081
:100840000801be000200be00f7ff37006120e10092
:10085000e80032006000b800f3ff3700000020001d
:1008600001f82700f0ff3700f4ff2f00e400370005
:1008700014002000e200370003f0a200889fbe00b1
:100880008a9fbe008c1f7800c5000700cc00330093
:100890006450e1004f0032006420e1005200320059
:1008a00003826c0007003b000905d0000306d0005e
:1008b000820f54000c065d00020039000200320075
:1008c00089017800030678008582550004003d0008
:1008d0000003fd008103fd008502ea008b854200d4
:1008e000840f720002003b0060001000e0801800de
:1008f0006011b8000005eb007a28e1000a00390019
:1009000006007800c75ddd00f707b200878075003c
:100910002d003700828171000a01780061056000b6
:100920008180d1000080d3008502e900f9ff3b00ff
:10093000060440008784480002003b006004140065
:10094000e0841c000988a300070032008a8171003e
:1009500082817100610164008904d1000884d300a0
:100960008b05e800170037000978a30013003a0050
:100970000b00e000130034008b05e900080444007c
:1009800089844c000a4474000978a3000d003a00e1
:100990000b00e000070034008b05e9000804440068
:1009a00089844c0001003a000b0020000978a30064
:1009b000f7ff32000001eb00020037008281710076
:1009c0000a017800500007000cf0a70001f0a00019
:1009d000840037006420e10002003a00838f6c003d
:1009e000840033000801be000200be007d00370015
:1009f0000400200082003700889fbe008a9fbe004e
:100a00008c1f7800660007006d00330003866c00c1
:100a10006450e100240032006420e100270032002d
:100a20006150e100220032006120e100210032002b
:100a30008b854200eb07b1000134b800003ab800e2
:100a40000804420089844a00013ab8000030b80026
:100a50008880400009014a00040033000000400083
:100a600081804800020149008b05e900c909dd00c9
:100a7000830170000100320013002000c814de0062
:100a80004814dd004709de001200b200c808de008d
:100a9000088470001c00070001f0a1000cf0a70002
:100aa00001f0a0004f0037006120e100510032004a
:100ab0000801be000200be00f7ff37006150e100f0
:100ac000fcff3a004b0037006022b800060220000d
:100ad0000000d0008180d2000482d2008582d20042
:100ae0000000a0000202520083825a00030031007d
:100af0000202420083824a000000a1000603e900ce
:100b0000f3ff3a00000006008100200061805500dc
:100b10000b003d000b00200061fe2f000100e100f2
:100b20001d00340082817100610164008904d100dc
:100b30000884d3000000e800faff3a0071002000aa
:100b400061006400030070000200600009003200d0
:100b500061044400e0844c000988a50005003200cf
:100b60008b05e8006808e10002003a008904d10022
:100b70000884d300f20f20000258e10005003d0078
:100b8000c75ddd00f907b2008980750008007800b4
:100b9000000006000bf827008b007800000005001d
:100ba0000004be00310007000003be000405be00c3
:100bb0000200be002d000700844f750000000600f3
:100bc0000200be006450e100050036006420e10030
:100bd000020036000968a30001003a000800be00c8
:100be0000160a0004f0678004f05be004f04be0014
:100bf00000000600f0ff2f00f1ff2700f9ff37008b
:100c0000889fbe008a9fbe00841f7800e4ff070013
:100c10004f00780011003300f0ff2f00838f6c002d
:100c200006003b00040565000a00a7000800370025
:100c300009f0a6001000200008003700820f5400c1
:100c4000838f5c00030039001000200001003e008b
:100c50000000200009f0a7000000ea004f05be00d8
:100c60004f04be000000e00000000600c70ade00de
:100c7000f107b200f50fb20008003200e1cf4200e8
:100c8000020032000170a00024000500810f7000f6
:100c9000010032000408050044000500810f7000c7
:100ca00002003a00140005008502e900000040003f
:100cb00081c04800fcff3b000170a000240005003b
:020000040000fa
:0200000401f009
:04000000e6ff000017
:020000040000fa
:0200000401f009
:04000400ff7f00007a
:020000040000fa
:0200000401f009
:040008007fff000076
:020000040000fa
:0200000401f009
:04001400ffff0000ea
:020000040000fa
:10000800b02c0000b02c0000b02c0000b02c000078
:10001800b02c0000b02c0000b02c0000b02c000068
:10002800b02c0000b02c0000b02c0000b02c000058
:10003800b02c0000b02c000006230000b02c0000fb
:10004800b02c0000d82b0000782b0000b02c00004a
:10005800b02c0000b02c0000aa150000b02c000045
:10006800b02c0000b02c0000b02c0000b02c000018
:10007800b02c0000142c0000e2270000b02c000077
:10008800b02c0000b02c0000b02c0000b02c0000f8
:10009800b02c0000b02c0000b02c0000b02c0000e8
:1000a800b02c0000b02c0000b02c0000b02c0000d8
:1000b800b02c0000b02c0000b02c0000b02c0000c8
:1000c800b02c0000b02c0000b02c0000b02c0000b8
:1000d800b02c0000b02c0000b02c0000b02c0000a8
:1000e800b02c0000b02c0000b02c0000b02c000098
:0800f800b02c0000b02c000048
:020000040000fa
:10010800b02c0000b02c0000b02c0000b02c000077
:10011800b02c0000b02c0000b02c0000b02c000067
:10012800b02c0000b02c0000b02c0000b02c000057
:10013800b02c0000b02c000006230000b02c0000fa
:10014800b02c0000d82b0000782b0000b02c000049
:10015800b02c0000b02c0000aa150000b02c000044
:10016800b02c0000b02c0000b02c0000b02c000017
:10017800b02c0000142c0000e2270000b02c000076
:10018800b02c0000b02c0000b02c0000b02c0000f7
:10019800b02c0000b02c0000b02c0000b02c0000e7
:1001a800b02c0000b02c0000b02c0000b02c0000d7
:1001b800b02c0000b02c0000b02c0000b02c0000c7
:1001c800b02c0000b02c0000b02c0000b02c0000b7
:1001d800b02c0000b02c0000b02c0000b02c0000a7
:1001e800b02c0000b02c0000b02c0000b02c000097
:0801f800b02c0000b02c000047
:020000040000fa
:100cc0000200fa00c31107000000eb00000f7800db
:100cd0000d0037009e00e80000d720000080400093
:100ce00010407800004178009e00780000d7200076
:100cf000008040001040780080407800c0cdb300f4
:100d0000e01107001e8fe8009e007800700d2000a3
:100d1000808f5000efff3600b21107000080fa000c
:100d2000000006000200fa00881f7800a9110700e1
:100d30000000eb00000f78000d0037001e04e800f3
:100d40009e00780000d7200000804000104078000e
:100d500080407800c0cdb300a61107008040780025
:100d600000d7200000004400014878001e8fe800f2
:100d70009e007800700d2000808f5000efff36003d
:100d8000981107004f0478000080fa000000060068
:100d90000600fa00000f78001e0078002007980077
:100da0002e009000e10f50000a0032002e0090004b
:100db000e20f50000a0032002e0090000000e00018
:100dc0000100320009003700c0c0b300b3edb70026
:100dd0000900370080c0b300b3edb700060037004c
:100de00020c0b300b3edb700030037000080eb0074
:100df00010079800020037000000eb001007980071
:100e00001e0090000080fa00000006000400fa00b6
:100e1000000f7800400420009e0f100006003200f2
:100e2000100120009e0f100003003200300320004c
:100e30009e0f100005003a001e007800a3edb700d9
:100e40000000eb0010079800020037000080eb0064
:100e5000100798001e0090000080fa0000000600b5
:100e60000400fa00000f78001e00e00015003200b8
:100e7000000220009e0f100012003200000320002c
:100e80009e0f10000f003200000420009e0f100083
:100e90000c003200000520009e0f100009003200f7
:100ea000000620009e0f1000060032000006200001
:100eb0009e0f100003003200000120009e0f100062
:100ec00005003a001e0078009dedb7000000eb0021
:100ed00010079800020037000080eb001007980010
:100ee0001e0090000080fa00000006000a00fa00d0
:100ef0002007980031079800ae0090003e00900057
:100f0000808f5000030039000080eb0040079800fc
:100f10001e003700be00900030382000808f500047
:100f2000030036000080eb004007980017003700f0
:100f30002e0090000000e900200798002e0090008d
:100f4000204798002e0090004800de0030479800af
:100f50003e009000004f78003e0090004800de0008
:100f6000104798003e40900079edb7002e40900069
:100f70007bedb7001e40900081edb7001e40780069
:100f800083edb7000000eb00400798004e00900092
:100f90000080fa00000006000a00fa00200798000e
:100fa00031079800ae0090003e009000808f500006
:100fb000030039000080eb00400798001b00370059
:100fc000be009000301f2000808f500003003600cc
:100fd0000080eb0040079800140037002e009000be
:100fe000204798002e0090004800de00304798000f
:100ff0003e009000004f78003e0090004800de0068
:10100000104798003e4090007dedb7002e409000c4
:101010007fedb7001e40900085edb7001e407800c0
:1010200087edb7000000eb00400798004e009000ed
:101030000080fa00000006000e00fa003007980059
:101040004107980052079800be0090004e009000a3
:10105000808f5000030039000080eb00600798008b
:101060002b003700ce009000301f2000808f5000f2
:10107000030036000080eb00600798002400370072
:10108000de00900030382000808f500003003600d2
:101090000080eb00600798001d0037003e009000c4
:1010a000404798003e0090004800de0050479800fe
:1010b0004e009000204798004e0090004800de004f
:1010c000304798005e009000104798005e00900046
:1010d0004800de00004f78005e40900001eeb7004f
:1010e0004e40900003eeb7003e40900005eeb70082
:1010f0002e40900007eeb7001e40780009eeb700c2
:101100001e4090000beeb7000000eb006007980057
:101110006e0090000080fa00000006000600fa0051
:1011200010079800210798001e0090000000e000c2
:10113000060032002e0090000000e00003003200a4
:10114000a0ccb300004f78000e0037001e009000c6
:101150000000e00003003200a0c4b300004f78009c
:10116000080037002e0090000000e000030032006d
:10117000a0c8b300004f780002003700a0c0b30041
:10118000004f78001e4078009fedb7000080fa0005
:10119000000006000600fa0020479800314798003a
:1011a0000000eb00000f7800100037009e00780070
:1011b00000d7200000804000904078002e40900032
:1011c00080cf500008003a001e00e80001d7200040
:1011d00001004000be409000014878000000eb0094
:1011e00020079800070037001e8fe8009e00780057
:1011f000700d2000808f5000ecff36008080eb00e7
:10120000210798002e0090000080fa0000000600e0
:101210000800fa0020479800210798000000eb0022
:10122000000f7800110037009e00780000d72000e2
:1012300000804000904078002e40900080cf500009
:1012400009003a009e00e80000d72000008040001e
:10125000904078002e009000014878000000eb00dc
:1012600030079800070037001e8fe8009e007800c6
:10127000700d2000808f5000ebff36000080eb00e7
:10128000300798003e0090000080fa000000060041
:101290000200fa00004f7800114798001e409000ad
:1012a00089edb7001e4078008bedb7000080fa0092
:1012b000000006000800fa00004f7800114798006f
:1012c000224798003347980044479800f0c4b30081
:1012d0009e4f1000030036000080eb00300798009e
:1012e0000c0037001e4078008dedb7001e409000c6
:1012f0008fedb7002e40900091edb7004e4090006a
:1013000093edb7003e40900095edb7000000eb0074
:10131000300798003e0090000080fa0000000600b0
:101320000400fa00008fbe001e00be004a09dd0066
:101330004600de0000007100c608de0099edb7002f
:101340001e00be004209dd004e00de0000007100fc
:10135000ce08de0097edb7000040eb009bedb70034
:101360000080fa00000006000200fa00004f78003a
:101370001e407800a5edb7000080fa0000000600ce
:101380000200fa00000f78001e00e00005003200a5
:10139000b5cdbf0001c8b30001407000b5edb70086
:1013a00003003700b5cdbf000074a100b5edb70054
:1013b0000080fa00000006000400fa00004f7800e8
:1013c00011479800224798001e407800b9edb700f9
:1013d0001e409000bbedb7002e409000bdedb70061
:1013e0000080fa00000006000200fa00004f7800ba
:1013f000114798001e4078007f4060000045b00013
:10140000bfedb7001e409000c1edb7000080fa00ac
:10141000000006000600fa001007980041479800f7
:101420004e4090000000fb00630060004500dd00be
:101430008040780000c8b30000c0400047eeb7000d
:101440000000eb00000f78000d0037001e00780050
:101450000000400032052000000141001e0078001d
:10146000800078001e0090000080400090407800ce
:1014700000d7200000004100014878001e0fe8005e
:101480001e007800e10f5000f0ff36000080fa00e7
:10149000000006000000fa00ce0f070047cebf0094
:1014a0000041780046cebf0080407800c0cdb30038
:1014b000f40f0700cb0f070081dd2000914078007a
:1014c000c2cdbf00020007000080fa000000060045
:1014d0000600fa0040479800514798000000eb00d2
:1014e000000f7800bb0f07000000eb00100798000a
:1014f0001f0037009e00900000d7200000804000b1
:10150000904078004e40900080cf50001500390088
:101510009e00900000d7200000804000904078009e
:101520005e40900080cf50000e003e001e009000f4
:101530008000e80000d720000080400010407800c4
:10154000004178009e00900000d7200000804000fd
:101550001040780080407800c0cdb300c90f07006c
:101560001e0fe8001e0090000080e80010079800a1
:101570009e009000700d2000808f5000ddff36002f
:10158000980f07001e0078000080fa000000060097
:101590000400fa00100798000000eb00000f78002c
:1015a0000d0037001e00780000004000b206200049
:1015b000000141001e007800800078001e009000ad
:1015c000008040009040780000d7200000004100db
:1015d000014878001e0fe8001e007800e10f50005f
:1015e000f0ff36000080fa00000006000200fa005a
:1015f000004f7800114798001e407800ededb700cd
:101600001e409000efedb7000080fa0000000600d9
:101610000200fa00004f7800114798001e40780041
:10162000f1edb7001e409000f3edb7000080fa0026
:10163000000006000200fa00004f780011479800f1
:101640001e407800f5edb7001e409000f7edb700a2
:101650000080fa00000006000200fa00004f780047
:101660001e80fb004400dd006f4040000deeb7001f
:101670000080fa00000006000200fa00004f780027
:10168000114798001e80fb004400dd008040780078
:101690001e4090006f40600000c040000feeb70099
:1016a0000080fa00000006000200fa00004f7800f7
:1016b000114798001e4090000080fb004400dd00b0
:1016c000804078001e4078006f40600000c04000fd
:1016d00011eeb7000080fa00000006000400fa00d6
:1016e000008fbe001e00be004088de00cf80de00fe
:1016f00013eeb7001e00be004809dd004800de0002
:1017000000007100c888de0015eeb7001e007800ea
:1017100017eeb7000080fa00000006000200fa0091
:10172000004f78001e40780019eeb7000080fa00e4
:10173000000006000400fa00000f7800110798006e
:101740001e0078004800de001feeb7001e00780083
:1017500021eeb7001e0090004800de0023eeb70027
:101760001e00900025eeb7000080fa000000060081
:101770000600fa00004f78001147980022479800b1
:101780003347980044479800554798002e409000f2
:1017900027eeb7003e40900029eeb7001e407800cb
:1017a0002beeb7001e4090002deeb7004e4090008b
:1017b0002feeb7005e40900031eeb7000080fa00d7
:1017c000000006000a00fa00000f780011079800d8
:1017d0002207980033079800200d20001e0f4000bc
:1017e0001e009000200db000100798002e00900001
:1017f00067004000200798003e009000670040000e
:10180000300798009e00900020352000808f500007
:10181000030036000080eb004007980039003700d5
:10182000be009000701e2000808f50000300360024
:101830000080eb0040079800320037001e00900047
:101840009e0f100004003100ae0090003e0090009a
:10185000808f5000030039000080eb0040079800a3
:1018600028003700501a20009e0f10000c00360090
:101870009e00900090272000808f500008003e00be
:10188000ae009000700a2000808f500004003600e7
:10189000be00900060142000808f500003003600ce
:1018a0000080eb0040079800160037001e0078000b
:1018b0004800de0033eeb7001e00780035eeb700ba
:1018c0001e0090004800de0037eeb7001e009000ba
:1018d00039eeb7002e0090004800de003beeb70066
:1018e0002e0090003deeb7003e0090004800de0064
:1018f0003feeb7003e00900041eeb7000000eb0065
:10190000400798004e0090000080fa00000006009a
:101910000600fa0010079800210798001e009000aa
:101920000000e000060032002e0090000000e00001
:1019300003003200c0c3b300004f78000e00370030
:101940001e0090000000e00003003200c0c2b3009f
:10195000004f7800080037002e0090000000e000e3
:1019600003003200c0c1b300004f7800020037000e
:10197000c0c0b300004f78001e40780043eeb700af
:101980000080fa00000006000200fa00000f780054
:101990001e00e00005003200a7cdbf00f1c7b30074
:1019a00001406000a7edb70004003700a7cdbf00dd
:1019b00001c8b30001407000a7edb7000080fa0035
:1019c000000006000400fa00000f780011079800dc
:1019d0001e00e00005003200a7cdbf00f1cbb30030
:1019e00001406000a7edb70004003700a7cdbf009d
:1019f00001c4b30001407000a7edb7001e009000c5
:101a00000000e00005003200a7cdbf00f1cdb3001b
:101a100001406000a7edb70004003700a7cdbf006c
:101a200001c2b30001407000a7edb7000080fa00ca
:101a3000000006000a00fa009dcdbf000080fb00f8
:101a40004007980000032000ce009000808f5000d7
:101a50003100320000032000ce009000808f500043
:101a60000b003c004e009000f00f500022003200ae
:101a700000022000ce009000808f50002200320033
:101a80004e0090000000e0001700320036003700e2
:101a900000052000ce009000808f5000260032000c
:101aa00000052000ce009000808f500005003c0013
:101ab00000042000ce009000808f50001a003200f9
:101ac0002900370000062000ce009000808f5000d3
:101ad0001d00320000072000ce009000808f5000d3
:101ae0001d00320020003700000028000107200000
:101af000008fbe0020003700000020006109200098
:101b0000008fbe001c00370000002400810320006d
:101b1000008fbe001800370000002200c101200025
:101b2000008fbe001400370000002100e1002000fb
:101b3000008fbe00100037000080200071002000e0
:101b4000008fbe000c00370000402800310020004c
:101b5000008fbe000800370000202c00110020007c
:101b6000008fbe00040037006000b8002007980016
:101b7000310798000a003700b3cdbf00ec4f50008a
:101b800004003a001e00be000000400081804800b2
:101b9000008fbe001e00be0020079800310798008d
:101ba0002e009000be0090000080fa0000000600a9
:101bb0001000fa00200798003107980042079800ab
:101bc00053079800640798005e0090000000e00052
:101bd000030035005e009000e30f50000300340066
:101be0000080eb00700798004c0037006e009000fa
:101bf0000000e000030035006e009000e30f50008d
:101c0000030034000080eb007007980043003700a9
:101c100088ff07000001be00606a20000013b800c2
:101c20006010b9000702780000024200606a2000dc
:101c30000098b90000024200840378002e00900052
:101c40006101b9000600be008bfa0700100798007a
:101c500078ff07000001be00606a20000013b80092
:101c60006010b9000702780000024200606a20009c
:101c70000098b90000024200840378003e00900002
:101c80006101b9000600be007bfa0700000f780072
:101c90001e0090004800de00abedb7001e00900073
:101ca000adedb7001e0078004800de00afedb700d4
:101cb0001e007800b1edb7004e0090000000e0007b
:101cc00004003200a7cdbf000044a000a7edb7007c
:101cd00004003700a7cdbf00f1ceb3000140600083
:101ce000a7edb7006e009000e34060005e0090003a
:101cf000630060004200dd0000c14000a7cdbf00ce
:101d00008040780000cfb30000c060000040410078
:101d1000a7edb7000000eb00700798007e00900070
:101d20000080fa00000006000000fa000080200099
:101d3000c90c0700230d07000000e000fdff320082
:101d40000080fa00000006004200fa00600f9800d0
:101d5000710f9800021798006e089000cf80de0087
:101d600054fa070002002000f33724007cfa070031
:101d7000400f9800510f98007e089000cf80de0041
:101d80004cfa070002002000f337240074fa070021
:101d9000200f9800310f98000e109000cf80de00c9
:101da00044fa070002002000f33724006cfa070011
:101db000000f9800110f98002e099000be099000a6
:101dc0004e089000de089000a7fa07000000e0002f
:101dd00001003c00050037004e089000de0890002e
:101de000501f9800611f9800040037002e089000d3
:101df000be089000501f9800611f98000e099000c7
:101e00009e0990005e189000ee18900096fa070068
:101e10000000e00001003c00160037002e09900091
:101e2000be0990004e089000de0890008efa070070
:101e30000000e00001003c00050037004e08900063
:101e4000de089000301f9800411f98000400370002
:101e50002e089000be089000301f9800411f980087
:101e60003e189000ce189000701f9800012798002f
:101e7000040037000e0890009e089000701f980024
:101e8000012798007e1890008e209000600798002f
:101e9000710798002e099000be0990004e0890002e
:101ea000de08900072fa07000000e0000100350033
:101eb000050037004e089000de089000701798006b
:101ec000011f9800040037002e089000be08900003
:101ed00070179800011f98000e0990009e0990004d
:101ee0007e1090008e18900061fa07000000e0005c
:101ef00001003500160037002e099000be09900041
:101f00004e089000de08900059fa07000000e0003b
:101f100001003500050037004e089000de089000f3
:101f20005017980061179800040037002e089000a1
:101f3000be08900050179800611798005e1090003e
:101f4000ee109000101f9800211f98000400370029
:101f50000e0890009e089000101f9800211f980006
:101f60001e189000ae189000400798005107980086
:101f70006000b80020079800310798004e019000db
:101f8000de0190006e009000fe0090003afa07001b
:101f9000008fbe006011b8001e00be0094fa07005a
:101fa0000000e00001003a004f0037004e099000a9
:101fb000de0990006e009000fe0090002cfa0700f1
:101fc0000000e00001003200200037000e09900000
:101fd0009e0990002e089000be08900026fa070087
:101fe0001e01be00def90700301798004117980067
:101ff000fe0890000e109000808f500005003d00fc
:1020000000002000010c24001017980021179800f0
:10201000030037006000b8001017980021179800df
:102020001e119000ae1190003e109000ce10900056
:1020300012fa070002002000032724006efa0700ae
:102040002007980031079800270037002e099000dc
:10205000be0990006e009000fe00900004fa070098
:102060000000e00001003200100037004e0990002f
:10207000de0990000e0890009e089000fef907000f
:102080001e01be00b6f90700020020000300240074
:10209000faf90700020020000327240056fa07007f
:1020a00020079800310798000f0037002e09900094
:1020b000be0990004e089000de089000eef907007f
:1020c0001e01be00a6f9070002002000030824003c
:1020d000eaf90700020020000327240046fa07005f
:1020e00020079800310798002e009000be00900055
:1020f0000080fa00000006001200fa006000b8003c
:102100006007980071079800770037006e00900014
:10211000fe00900000004000818048000280200006
:1021200002004000104078008000fb00800f20007b
:1021300000806000400798006e009000fe00900054
:102140000000400081804800028020000200400022
:10215000104078000000fb0067006000c501dd0052
:102160006e009000fe00900000004000818048005a
:1021700061004000e0804800028020000200400032
:10218000104078008000fb00000e200000806000fe
:102190004380de0000807100500798006e009000c0
:1021a000fe00900000004000818048006100400077
:1021b000e0804800028020000200400010407800cb
:1021c0000000fb007f0060004300dd003007980046
:1021d0003e019000de0090004e009000dafe070005
:1021e000008fbe000040eb00105798000200200056
:1021f000733824001e00be009bf907000000e000b9
:1022000001003c000200370010c0b30010579800d6
:102210001e5090000004a2000004e0001a003a00e2
:102220000040eb00005798000200200063392400b2
:102230001e00be008ef907000000e000010035001e
:102240000200370010c0b300005798000e509000f5
:102250000004a2000004e0000b003a006e009000b1
:10226000fe00900080004000008a20008080400036
:1022700010002000800878002e0090000000e80088
:1022800020079800070037006e009000fe009000c5
:1022900080004000008a2000808040000000eb00a9
:1022a000800878002e0090000000e0000500340057
:1022b0001000200001002000804c8800914c880014
:1022c000030037006000b800804c8800914c880003
:1022d0006e009000fe00900061004000e080480029
:1022e00060079800710798006e019000fe01900051
:1022f000f004200001002000800f5100818f590060
:1023000082ff34000080fa00000006000800fa0096
:102310000000eb00200798000000eb001007980079
:102320000000eb00000f7800120037001e0078005c
:1023300080004000008a200000804000900078006b
:102340002e0090000100400020079800810220002c
:102350001e80400080004000008a20000080400075
:10236000900078001e0090000100400010079800c7
:102370001e0fe800700220009e0f1000ebff3400db
:10238000ae0090001e009000808f500003003d00c2
:102390001000200030079800020037008000eb009a
:1023a000310798003e0090000080fa00000006000f
:1023b0000000fa00d5ff07000000e0000500320031
:1023c000401f20007d040700c0e02f00b804070074
:1023d00004003700c0e02f0078040700401f2000f1
:1023e000b30407000080fa00000006000000fa00b5
:1023f000401f200071040700401f2000ac040700ac
:102400000080fa00000006000200fa00bd0b070081
:10241000160020004500200084002000430020001a
:1024200002282000e10e20000000eb00690b0700ed
:102430001100200010002000920b0700a80b0700dd
:102440009c0707000000370037fe07002aff07003f
:102450006147800070478000808040008047800096
:10246000808040009047800080804000a04780002e
:1024700080804000b0478000008f40003000200086
:102480009e0f100004003400801d2100ce070700bd
:10249000d6ff0700ecff3700824c8000934c800091
:1024a0001000200001002000800f5100818f590092
:1024b00004003a00a1282000801d21009207070097
:1024c000e1ff3700801d2100bf0707000000eb007f
:1024d0003a0407000000eb0075040700daff37003c
:1024e0000000fa000000370006c2bf006140600033
:1024f0000004e000fcff3a0006c2bf006440600038
:102500000004e000f8ff3a0006c2bf006840600027
:102510000004e000f4ff3a0006c2bf007040600013
:102520000004e000f0ff3a0009c2bf000044b2001e
:102530000004e000ecff3a000080fa000000060012
:102540000400fa00600920002010880007e2a900ba
:1025500007e2a80085c0a90085a0a900b109200054
:102560009140780080cfb30000c060005040b300bd
:102570009be0b7008da0a90000712200010020009f
:10258000008fbe00040037000080eb008080eb006d
:102590001e0f40005e9748001e00be00e00f500076
:1025a000e08f5800f8ff3a00100020000080fa0089
:1025b000000006000400fa006000b800008fbe00b2
:1025c00007e2a90085c0a90085a0a9008da0a900e7
:1025d0000071220001002000008fbe0004003700bf
:1025e0000080eb008080eb001e0f40005e974800eb
:1025f0001e00be00e00f5000e08f5800f8ff3a00c8
:10260000cfff07000f00070000712200010020002b
:10261000008fbe00040037000080eb008080eb00dc
:102620001e0f40005e9748001e00be00e00f5000e5
:10263000e08f5800f8ff3a00100020000080fa00f8
:10264000000006000000fa0085c0a9008dc0a800a7
:10265000100020000080fa00000006000000fa00d0
:1026600085c0a9008dc0a900100020000080fa00dc
:10267000000006000600fa0010c0b3009ceeb70090
:1026800008c2bf00704060000004e0001600320085
:102690000602a8000071220001002000008fbe0089
:1026a0000a0037009ccebf000004e00003003a009f
:1026b00010002000200798000d0037000080eb007c
:1026c0008080eb001e0f40005e9748001e00be0099
:1026d000e00f5000e08f5800f2ff3a008000eb005e
:1026e00021079800020037000000eb002007980047
:1026f0002e0090000080fa00000006000600fa009c
:1027000060c0b3009ceeb70008c2bf006840600024
:102710000004e000160032000622a800007122002a
:1027200001002000008fbe000a0037009ccebf00d1
:102730000004e00003003a00100020002007980089
:102740000d0037000080eb008080eb001e0f400082
:102750005e9748001e00be00e00f5000e08f58005a
:10276000f2ff3a008000eb002107980002003700da
:102770000000eb00200798002e0090000080fa0077
:10278000000006000600fa0050c0b3009ceeb7003f
:102790000642a8000071220001002000008fbe0048
:1027a0000a0037009ccebf000004e00003003a009e
:1027b00010002000200798000a0037000080eb007e
:1027c0008080eb001e0f40005e9748001e00be0098
:1027d000e00f5000e08f5800f2ff3a008000eb005d
:1027e000210798002e0090000080fa0000000600eb
:1027f0000600fa0030c0b3009ceeb70006c2bf006e
:10280000614060000004e00010003a0006c2bf0012
:10281000644060000004e0000c003a0006c2bf0003
:10282000684060000004e00008003a0006c2bf00f3
:10283000704060000004e00004003a0006c2bf00df
:10284000624060000004e000030032000000eb0082
:10285000200798001600370006a2a9000682a800eb
:102860000071220001002000008fbe000a00370026
:102870009ccebf000004e00003003a0011002000dd
:10288000210798000a0037000080eb008080eb00f1
:102890001e0f40005e9748001e00be00e00f500073
:1028a000e08f5800f2ff3a008000eb00210798000b
:1028b0002e0090000080fa00000006000600fa00da
:1028c00030c0b3009ceeb70006c2bf00614060009c
:1028d0000004e00010003a0006c2bf00644060003f
:1028e0000004e0000c003a0006c2bf00684060002f
:1028f0000004e00008003a0006c2bf00704060001b
:102900000004e00004003a0006c2bf00624060001c
:102910000004e000030032000000eb0020079800f4
:102920001600370006a2a8000682a8000071220047
:1029300001002000008fbe000a0037009ccebf00bf
:102940000004e00003003a00110020002107980075
:102950000a0037000080eb008080eb001e0f400073
:102960005e9748001e00be00e00f5000e08f580048
:10297000f2ff3a008000eb00210798002e00900043
:102980000080fa00000006000a00fa0030079800f4
:102990000071220001002000100798002107980014
:1029a0000040eb00004f780040c0b3009ceeb70041
:1029b00000712200010020001007980021079800f4
:1029c0001d00370006c2bf00614060000004e00047
:1029d00013003a0006c2bf00644060000004e0003b
:1029e0000f003a0006c2bf00684060000004e0002b
:1029f0000b003a0006c2bf00704060000004e00017
:102a000007003a0009c2bf000044b2000004e00021
:102a100003003a0010c0b300004f78000b003700ed
:102a20001e009000ae00900061005000e080580051
:102a300010079800210798001e009000ae0090003b
:102a4000e00f5000e08f5800deff3a001e04e00067
:102a500003003a000000eb00400798001d0037001b
:102a60000662a800006a28001100200010079800e4
:102a700021079800100037009ccebf000004e00042
:102a800007003a0000c2bf00804078003e0090007e
:102a90000148780010002000400798000d00370022
:102aa0001e009000ae00900061005000e0805800d1
:102ab00010079800210798001e009000ae009000bb
:102ac000e00f5000e08f5800ebff3a000000eb00f1
:102ad000400798004e0090000080fa0000000600b9
:102ae0000800fa004047980020c0b3009ceeb700f1
:102af0004e40900002e2b700007122000100200069
:102b0000008fbe000a0037009ccebf000004e0002a
:102b100003003a0010002000300798000a00370038
:102b20000080eb008080eb001e0f40005e974800a5
:102b30001e00be00e00f5000e08f5800f2ff3a0088
:102b40008000eb00310798003e0090000080fa0002
:102b500000000600801f78003400f800000020000c
:102b6000a00188000000fa0085c0a9000040eb0029
:102b70009ceeb7000080fa003400f9004f007800a6
:102b8000004006000200fa00004f7800110a07001a
:102b90001e41780031c0b300c0cdb300390a070030
:102ba000100a07000080fa00000006000400fa0086
:102bb000004f780011479800224798001e40780087
:102bc000f0ff0700030a07002e4190009e4090008e
:102bd000c0cdb3002b0a0700020a07000080fa00ec
:102be000000006000400fa002047980031479800d2
:102bf0002e409000e3ff0700f6090700be4090005a
:102c0000c0cdb300fb090700004f7800f5090700ad
:102c10001e80fb000080fa00000006000200fa009f
:102c2000004f78001e41780011c9b3000040eb004e
:102c3000deff07000080fa00000006000200fa0034
:102c4000004f78001e41780081c6b30010c0b30069
:102c5000d6ff07000080fa00000006000600fa0018
:102c6000004f78001e80fb00200798000004200021
:102c7000ae009000808f50001a0032000008200043
:102c8000ae009000808f500027003200000220002c
:102c9000ae009000808f50000100320033003700fa
:102ca00010c0b300e5ff07001e41780001c8b30063
:102cb00010c0b300bdff07001e41780011c8b3006b
:102cc00010c0b300b9ff070012c0b30021c8b300a1
:102cd00010c0b300b5ff07000000eb00100798001c
:102ce0002400370030c0b300d4ff07001e41780035
:102cf00001c8b30010c0b300acff07001e4178004c
:102d000011c8b30010c0b300a8ff070012c0b30081
:102d100021c8b30010c0b300a4ff07008000eb007f
:102d2000110798001300370070c0b300c3ff0700fd
:102d30001e41780001c8b30010c0b3009bff07001c
:102d40001e41780011c8b30010c0b30097ff070000
:102d500012c0b30021c8b30010c0b30093ff070036
:102d60000000eb0010079800020037008080eb00a5
:102d7000110798001e0090000080fa000000060075
:102d80000600fa00004f78001e80fb002007980024
:102d900000042000ae009000808f50001a00320026
:102da00000082000ae009000808f50002700320005
:102db00000022000ae009000808f50000100320021
:102dc000330037000040eb009cff07001e417800f5
:102dd00001c8b30010c0b30074ff07001e417800a3
:102de00011c8b30010c0b30070ff070012c0b300d9
:102df00021c8b30010c0b3006cff07000000eb0057
:102e0000100798002400370010c0b3008bff0700a4
:102e10001e41780001c8b30010c0b30063ff070073
:102e20001e41780011c8b30010c0b3005fff070057
:102e300012c0b30021c8b30010c0b3005bff07008d
:102e40008000eb00110798001300370030c0b3007a
:102e50007aff07001e41780001c8b30010c0b3001c
:102e600052ff07001e41780011c8b30010c0b30024
:102e70004eff070012c0b30021c8b30010c0b3005a
:102e80004aff07000000eb0010079800020037001f
:102e90008080eb00110798001e0090000080fa006f
:102ea000000006000600fa00004f78001147980065
:102eb0001e80fb00200798002e009000e10f5000bc
:102ec0000f0032002e009000e20f5000140032007c
:102ed0002e0090000000e0000100320018003700d2
:102ee000d2c0b30081c3b30010c0b3002fff0700ee
:102ef0001e40900059ff070010079800120037008d
:102f000082c0b30081c3b30010c0b30027ff070025
:102f10001e4090009aff0700100798000a00370033
:102f200022c0b30081c3b30010c0b3001fff07006d
:102f30001e40900092ff0700100798000200370023
:102f40000080eb00100798001e0090000080fa003f
:102f5000000006000a00fa002007980031079800d8
:102f6000ae0090003e009000808f500003003900ba
:102f70000080eb00400798001e003700be00900064
:102f8000f0312000808f5000030036000080eb00fd
:102f900040079800170037002e0090000000e9005d
:102fa000200798002e009000204798002e009000e7
:102fb0004800de00304798003e009000004f780047
:102fc0003e0090004800de00104798002e4190001f
:102fd00011c5b30010c0b300f4fe07003e419000dd
:102fe00001c5b30010c0b300f0fe07000000eb0005
:102ff000400798004e0090000080fa000000060094
:103000000800fa0020079800310798000000eb0044
:103010000080fa00000006000a00fa00200798006d
:1030200031079800ae0090003e009000808f500065
:10303000030039000080eb004007980023003700b0
:10304000be009000301f2000808f5000030036002b
:103050000080eb00400798001c0037002e00900015
:10306000204798002e0090004800de00304798006e
:103070003e009000004f78003e0090004800de00c7
:10308000104798003e41900001c6b30010c0b30045
:10309000c6fe07002e41900011c6b30010c0b30059
:1030a000c2fe07001e41900021c6b30010c0b3004d
:1030b000befe07001e41780031c6b30010c0b30049
:1030c000bafe07000000eb00400798004e00900099
:1030d0000080fa00000006000200fa00000f7800ed
:1030e00012c0b300a1c5b30020c0b300affe0700fb
:1030f00012c4b30021c3b30010c0b300abfe07007d
:103100001e00e00011003a0000c1eb0081c8b300ce
:1031100010c0b300a5fe070000c1eb0091c8b300ca
:1031200010c0b300a1fe070082c0b300a1c8b30065
:1031300010c0b3009dfe070000c1eb00b1c8b30092
:1031400010c0b30099fe07001000370002c2b300a0
:1031500081c8b30010c0b30094fe070002c8b300da
:1031600091c8b30010c0b30090fe070082c0b30046
:10317000a1c8b30010c0b3008cfe070000c1eb0073
:10318000b1c8b30010c0b30088fe07000080fa0089
:10319000000006000600fa001007980021079800ba
:1031a00001c9b3000040eb008efe0700004f78001d
:1031b0001e0090000000e0000300320000c8b300d1
:1031c0001e4f700002003700f0c7b3001e4f6000b2
:1031d0002e0090000000e0000300320000c4b300a5
:1031e0001e4f700002003700f0cbb3001e4f60008e
:1031f0001e41780001c9b3000040eb006bfe0700e0
:103200000080fa00000006000400fa00c07480008c
:103210000000e0001f0032006174800080da2f009f
:10322000808f50001b0035006174800080252000d5
:10323000808f500017003c00d602a900d622a900ba
:10324000d642a900d662a9000000eb00c074880035
:103250006074800000017800120798001e01900041
:103260000200e00003003d001e0190000201ea00a0
:1032700012079800007122001e0190001100090041
:103280000200d800ef0050004090210076040700b3
:103290004d003700607480000000e0000c00340036
:1032a000a07480000000e800a07488008074800092
:1032b0000000e90080748800807480000000e00055
:1032c0000e003d0030002000807488000b003700a5
:1032d000a07480000000e900a07488008074800061
:1032e0000000e8008074880080748000e30f5000c4
:1032f000020034000000eb008074880080748000bd
:10330000000f78001e017800e10f51001300320019
:103310001e007800e10f500004003c001e01780000
:103320000200e000080032001a0037001e0078009a
:10333000e20f50000e0032001e017800e30f510032
:103340001000320013003700d602a900d622a800d0
:10335000d642a900d662a8000e003700d602a90006
:10336000d622a800d642a800d662a90009003700dc
:10337000d602a800d622a900d642a800d662a9008b
:1033800004003700d602a800d622a900d642a90020
:10339000d662a8006174800080da2f00808f500010
:1033a000090035006174800080252000808f500066
:1033b00005003c0010002000c0748800f1002000cf
:1033c00040902100280407000080fa000000060059
:1033d0000400fa00d07480000000e0001f003200fa
:1033e0007174800080da2f00808f50001b00350040
:1033f0007174800080252000808f500017003c00f1
:10340000d682a900d6a2a900d6c2a900d6e2a900f8
:103410000000eb00d0748800707480000001780018
:10342000120798001e0190000200e00003003d001a
:103430001e0190000201ea001207980000712200ac
:103440001e019000110009000200d800ef0050009a
:10345000809e2100040407004d0037007074800036
:103460000000e0000c003d00b07480000000e900a6
:10347000b0748800907480000000e90090748800a7
:10348000907480000000e0000e003d00300020003d
:10349000907488000b003700b07480000000e800d2
:1034a000b0748800907480000000e8009074880078
:1034b00090748000e30f5000020034000000eb0025
:1034c0009074880090748000000f78001e017800ce
:1034d000e10f5100130032001e007800e10f500090
:1034e00004003c001e0178000200e00008003200e9
:1034f0001a0037001e007800e20f50000e00320064
:103500001e017800e30f5100100032001300370055
:10351000d682a900d6a2a800d6c2a900d6e2a800e9
:103520000e003700d682a900d6a2a800d6c2a800f5
:10353000d6e2a90009003700d682a800d6a2a900c9
:10354000d6c2a800d6e2a90004003700d682a8009f
:10355000d6a2a900d6c2a900d6e2a8007174800044
:1035600080da2f00808f50000900350071748000d0
:1035700080252000808f500005003c0010002000b6
:10358000d0748800f1002000809e2100b60307005f
:103590000080fa00000006000000fa008000eb0046
:1035a00040902100580307008000eb00809e21001e
:1035b000550307000080fa00000006000200fa0030
:1035c000000f78001e00e0000a003a000000eb0047
:1035d000607488008000eb0040902100a203070087
:1035e000d602a900d622a900d642a900d662a90017
:1035f0002d00370080c12f009e0f10000a003d00f3
:1036000080c12f006074880062748000008f2d00dc
:10361000110009000200d8008000780040902100cd
:103620009103070020003700803e20009e0f10000d
:103630000a003400803e20006074880062748000bc
:1036400000712200110009000200d80080007800fb
:103650004090210084030700130037001e0078000b
:10366000607488001e00e00008003d00008f2d00ff
:103670001e017800110009000200d80080007800c7
:1036800040902100780307000700370000712200f6
:103690001e017800110009000200d80080007800a7
:1036a00040902100700307000080fa00000006002f
:1036b0000200fa00000f78001e00e0000a003a0045
:1036c0000000eb00707488008000eb00809e2100f9
:1036d00065030700d682a900d6a2a900d6c2a90018
:1036e000d6e2a9002d00370080c12f009e0f1000e8
:1036f0000a003d0080c12f00707488007274800041
:10370000008f2d00110009000200d8008000780011
:10371000809e21005403070020003700803e2000d7
:103720009e0f10000a003400803e20007074880054
:103730007274800000712200110009000200d8009c
:1037400080007800809e21004703070013003700a7
:103750001e007800707488001e00e00008003d0024
:10376000008f2d001e017800110009000200d80012
:1037700080007800809e21003b030700070037008f
:10378000007122001e017800110009000200d8001b
:1037900080007800809e2100330307000080fa003b
:1037a000000006000800fa00000f780011079800da
:1037b0001e007800300798003e0190000200e000f3
:1037c00003003d003e0090000000ea003007980032
:1037d0001e019000220798002e0090000000e000db
:1037e00003003d002e0190000201ea00220798002c
:1037f0003e0090002e01900082004000803e20009c
:10380000808f500006003c001e0090001e0010003b
:103810006aff07001e0090001e004000a4ff070082
:103820000080fa00000006000000fa00a07480008a
:103830000080fa00000006000200fa00000f780085
:103840001e007800a07488000080fa0000000600c6
:103850000000fa00b07480000080fa00000006004a
:103860000200fa00000f78001e007800b074880093
:103870000080fa00000006002400fa00000f980003
:10388000110f9800220f9800330f9800440f9800f2
:10389000550f9800660f98000e08900070004000c9
:1038a000000f98001e08900068004000100f98005c
:1038b0005e0890000000e000030032004e08900017
:1038c0000000e00003003a000080eb00700f980059
:1038d0001f0137008e0890002e0890008080400065
:1038e000002d2000808f5000030036008080eb0008
:1038f000710f9800160137009e0890003e08900056
:1039000080804000801e2000808f50000300360021
:103910000080eb00700f98000d0137002e0890001a
:103920004e099000110009000280d8008000fd00bf
:103930000000e000030032008080eb00710f98006f
:10394000030137003e0890005e0990001100090055
:103950000280d8008000fd000000e000030032007b
:103960000080eb00700f9800f90037005e089000af
:10397000630060000000e00039003a004e0890004b
:10398000630060000000e00011003a000008200021
:10399000000f780040002000100798005e0890009b
:1039a0004200de00300798004e0890004200de0022
:1039b000200798001e08900064005000100f980027
:1039c0000e08900064005000000f98005a00370065
:1039d0004e089000610060000000e00011003a0015
:1039e00000042000000f780020002000100798003d
:1039f0005e0890000000d100300798004e0890004b
:103a00000000d100200798001e0890000080e90007
:103a1000100f98000e0890000080e900000f980039
:103a20004500370000022000000f78001000200041
:103a300010079800de089000310798004e089000ab
:103a4000200798001e0890000000e900100f980061
:103a50000e0890000000e900000f980036003700c3
:103a60005e089000610060000000e00024003a0061
:103a70004e089000610060000000e00011003a0074
:103a800000042000000f780020002000100798009c
:103a90005e0890000000d100300798004e089000aa
:103aa0000000d100200798001e0890000080e90067
:103ab000100f98000e0890000080e900000f980099
:103ac0001d00370000022000000f780010002000c9
:103ad00010079800de089000310798004e0890000b
:103ae000200798001e0890000000e900100f9800c1
:103af0000e0890000000e900000f98000e0037004b
:103b0000100020001007980000022000000f78002d
:103b1000ce089000210798005e08900030079800ba
:103b20001e0890000000e900100f98000e08900099
:103b30000000e900000f98002e0090000000e9004e
:103b4000600798003e0090000000e90070079800b0
:103b50002e0890004e099000110009000280d80044
:103b6000500798003e0890005e099000110009007f
:103b70000280d80040079800102d20001e01900000
:103b8000110009000200d800800078001e0190009a
:103b90000e089000811f7800110009000280d800f3
:103ba00001017800cf007800eafc07000000e00087
:103bb000030032008080eb00710f98006400370032
:103bc000901e20001e019000110009000200d80084
:103bd000800078001e0190001e089000811f780070
:103be000110009000280d80001017800cf007800a0
:103bf00003fd07000000e000030032000080eb003e
:103c0000700f980052003700811e20001e0890009f
:103c100001fd07000000e000030032008080eb009f
:103c2000710f98004a0037006e0890000000e00015
:103c300018003a001e0078000017980000042000c9
:103c40008e109000808f50000c0032000008200081
:103c50008e109000808f50000b0032000002200078
:103c60008e109000808f500001003200200037003d
:103c700000c9b300e9fb07001d00370000c5b30011
:103c8000e6fb07001a00370000c1b300e3fb0700a2
:103c9000170037001e00780010179800000420005d
:103ca0009e109000808f50000c0032000008200011
:103cb0009e109000808f50000b0032000002200008
:103cc0009e109000808f50000100320008003700e5
:103cd00000cbb300d1fb07000500370000c9b300db
:103ce000cefb07000200370000c5b300cbfb070086
:103cf0001e007800804078006e08900069fc070084
:103d00000000e000030032000080eb00700f98001c
:103d10000f0037006e0890001000070000017800c7
:103d20007e029000ee019000de0090004e009000b8
:103d3000d50407000000e000030032008080eb00a3
:103d4000710f9800020037000000eb00700f980020
:103d50007e0890000080fa00000006000600fa00cd
:103d6000000f78001e007800200798002e009000b9
:103d7000e10f50000a0032002e009000e20f5000c8
:103d80000a0032002e0090000000e0000100320026
:103d900009003700100020001007980008003700c5
:103da00020002000100798000500370020002000a8
:103db000100798000200370010002000100798003c
:103dc0001e0090000080fa00000006002200fa00a9
:103dd00070079800010f9800120f9800230f9800a9
:103de000340f9800450f9800560f98007e00900001
:103df000200db000700798000e089000670040008a
:103e0000000f98004e0890000000e0000300320010
:103e10003e0890000000e00003003a000080eb0044
:103e2000600f980004013700fe0090001e0890000b
:103e30008080400020352000808f50000300360035
:103e40008080eb00610f9800fb0037008e08900027
:103e50002e08900080804000701e2000808f50004f
:103e6000030036000080eb00600f9800f20037007e
:103e70001e0890003e099000110009000280d80041
:103e80008000fd000000e000030032008080eb00b5
:103e9000610f9800e80037002e0890004e0990004e
:103ea000110009000280d8008000fd000000e00041
:103eb000030032000080eb00600f9800de00370046
:103ec0004e089000630060000000e00033003a00fc
:103ed0003e089000630060000000e0000f003a0020
:103ee00030032000000f78004e0890004200de00f2
:103ef000200798003e0890004200de00100798005e
:103f00000e08900064005000000f98007e009000a2
:103f10006400500070079800500037003e08900081
:103f2000610060000000e0000f003a001001200076
:103f3000000f78004e0890000000d1002007980084
:103f40003e0890000000d100100798000e08900075
:103f50000080e900000f98007e0090000080e900da
:103f6000700798003d00370040042000000f7800e3
:103f7000ce089000210798003e0890001007980096
:103f80000e0890000000e900000f98007e009000ed
:103f90000000e90070079800300037004e089000dc
:103fa000610060000000e00020003a003e08900040
:103fb000610060000000e0000f003a0010012000e6
:103fc000000f78004e0890000000d10020079800f4
:103fd0003e0890000000d100100798000e089000e5
:103fe0000080e900000f98007e0090000080e9004a
:103ff000700798001900370040042000000f780077
:10400000ce089000210798003e0890001007980005
:104010000e0890000000e900000f98007e0090005c
:104020000000e900700798000c00370040042000f1
:10403000000f7800be089000110798004e0890000d
:10404000200798000e0890000000e900000f98007b
:104050007e0090000000e900700798001e009000ac
:104060000000e900500798002e0090000000e900d1
:10407000600798001e0890003e099000110009009a
:104080000280d800400798002e0890004e0990004a
:10409000110009000280d800300798005e089000e7
:1040a0003bf307000000e000030032008080eb00db
:1040b000610f9800600037001e00780053f307007e
:1040c0000000e000030032000080eb00600f980069
:1040d000590037005e0890000000e00017003a0029
:1040e0009e007800710f980030032000fe089000b9
:1040f000808f50000e00320040042000fe08900027
:10410000808f5000040032007e089000f10f5000b4
:10411000040032001f0037000003200050f30700a6
:104120001c003700000220004df307001900370083
:104130000000eb004af30700160037009e007800ed
:1041400001179800300320008e109000808f5000df
:104150000e003200400420008e109000808f50002e
:10416000040032000e109000f10f500004003200e5
:10417000080037000004200039f30700050037006d
:104180000003200036f30700020037000002200081
:1041900033f30700313520007e00900053f3070011
:1041a0000000e000030032008080eb00610f980007
:1041b00021003700811e20000e08900076f30700d2
:1041c0000000e000030032000080eb00600f980068
:1041d000190037007e0090000001e800711e2000e9
:1041e0000e08900094f307000000e0000300320086
:1041f0008080eb00610f98000f0037005e08900090
:1042000010000700000178006e029000de019000af
:10421000ce0090003e0090009b0307000000e000ed
:10422000030032000080eb00600f980002003700ae
:104230008000eb00610f98006e0890000080fa008b
:10424000000006000600fa00000f78001e0078004b
:10425000200798002e009000e10f50000a00320065
:104260002e009000e20f50000a0032002e00900055
:104270000000e000010032000900370010002000bb
:104280001007980008003700200020001007980051
:1042900005003700200020001007980002003700ba
:1042a00010002000100798001e0090000080fa0007
:1042b000000006000000fa000000eb008008880003
:1042c0000111200091407800f0ccb30000c06000e4
:1042d00010e1b7000000eb0030088800205c2000ef
:1042e0006008880084c0a9008cc0a80011e1a80063
:1042f0000080fa00000006000000fa0011e1a900a9
:104300000080fa00000006000800fa00100798007c
:104310002107980050758000000f78000b003700cf
:104320001e007800b00090001e009000808f5000aa
:1043300003003a0011002000310798001f003700e9
:104340001e007800c0009000010f78001e00e00001
:10435000f3ff3a00a0002000fbef0700000f7800f9
:104360001e00e00002003a001000200048f00700a4
:10437000ae0090001e007800010878009e007800d2
:104380000000eb00900098009e00780010c0b30081
:10439000c04098001e0078009e00900031009800f8
:1043a000517580001e007800410098001e007800c2
:1043b0005075880011002000310798003e009000e1
:1043c0000080fa00000006000800fa0020079800ac
:1043d0000000eb001007980050758000000f780077
:1043e0001a0037001e007800b00090002e009000e8
:1043f000808f500010003a001e0090000000e00086
:10440000050032001e007800c00090001e009000e1
:1044100041009800030037001e0078004000900023
:10442000507588001e0078002bf007001100200056
:1044300031079800090037001e0078001007980027
:104440001e007800c0009000010f78001e00e00000
:10445000e4ff3a0020002000300798003e00900062
:104460000080fa00000006000800fa00100798001b
:104470002107980050758000000f78000e0037006b
:104480001e007800b00090001e009000808f500049
:1044900006003a00ae0090001e0078000108780087
:1044a0001100200031079800070037001e00780037
:1044b000c0009000010f78001e00e000f0ff3a00fd
:1044c00020002000300798003e0090000080fa0095
:1044d000000006000600fa001007980050758000e2
:1044e000000f78000e0037001e007800b00090002a
:1044f0001e009000808f500006003a009e00780059
:104500000000eb00900098001100200021079800a7
:10451000070037001e007800c0009000010f7800ef
:104520001e00e000f0ff3a00200020002007980065
:104530002e0090000080fa00000006000600fa003d
:104540001007980050758000000f78000e003700ab
:104550001e007800b00090001e009000808f500078
:1045600006003a009e0078000040eb00c040980032
:104570001100200021079800070037001e00780076
:10458000c0009000010f78001e00e000f0ff3a002c
:1045900020002000200798002e0090000080fa00e4
:1045a000000006000600fa00100798005075800011
:1045b000000f78000e0037001e007800b000900059
:1045c0001e009000808f500006003a009e00780088
:1045d00010c0b300c04098001100200021079800cf
:1045e000070037001e007800c0009000010f78001f
:1045f0001e00e000f0ff3a00200020002007980095
:104600002e0090000080fa00000006003600f8003e
:10461000809fbe00829fbe00849fbe00869fbe001a
:104620003400f80000002000a00188000200fa0019
:1046300050758000000f780084c0a9001e0037006c
:104640001e00780040409000e14f500017003a00f3
:104650001e007800100078000000e0001300320017
:104660001e007800100090008000e8001e00780016
:10467000110098001e007800100090008000780063
:104680001e007800100078000000e900808f5000c4
:10469000060036001e007800300090000000010087
:1046a0009e0078000000eb00900098001e0078004b
:1046b000c0009000010f78001e00e000e0ff3a000b
:1046c0000080fa003400f9004f03be004f02be0024
:1046d0004f01be004f00be003600f900004006004a
:1046e0000000fa00c0c220005b020700b50207000c
:1046f0000000e000fdff32000080fa00000006002c
:104700000a00fa006000b8003007980041079800de
:104710004a0037003e009000ce00900000004000ac
:1047200081804800c2c22000020040001040780092
:104730008000fb00800f20000080600010079800c0
:104740003e009000ce0090000000400081804800b4
:10475000c2c2200002004000104078000000fb00b0
:1047600067006000c501dd003e009000ce009000b3
:10477000000040008180480061004000e080480067
:10478000c2c2200002004000104078008000fb0000
:10479000000e2000008060004380de000080710079
:1047a000200798001e009000210320008080400018
:1047b0002e009000808f500009003d003e009000c8
:1047c000ce00900080004000c0cc200080804000df
:1047d00010002000800878001e0fe8000700370056
:1047e0003e009000ce00900080004000c0cc200031
:1047f000808040000000eb00800878001e00e00090
:10480000050034001000200001002000606b8800cb
:10481000716b8800030037006000b800606b88008f
:10482000716b88003e009000ce0090006100400057
:10483000e080480030079800410798003e01900052
:10484000ce019000f004200001002000800f5100f4
:10485000818f5900afff34000080fa00000006008d
:104860000800fa000000eb00200798000000eb00b1
:10487000100798000000eb00000f780012003700ce
:104880001e00780080004000c0cc20000080400066
:10489000900078002e009000010040002007980052
:1048a000810220001e80400080004000c0cc20001b
:1048b00000804000900078001e0090000100400041
:1048c000100798001e0fe800700220009e0f1000d5
:1048d000ebff3400ae0090001e009000808f50006f
:1048e00003003d0010002000300798000200370050
:1048f0008000eb00310798003e0090000080fa0035
:10490000000006000000fa00d5ff07000000e000ec
:1049100005003200401f200028fb0700c0e02f00e8
:1049200063fb070004003700c0e02f0023fb0700f3
:10493000401f20005efb07000080fa000000060018
:104940000000fa00401f20001cfb0700401f200051
:1049500057fb07000080fa00000006000200fa0082
:104960006802070016002000450020008400200097
:104970004300200002282000e10e20000000eb0090
:104980001402070011002000100020003d02070063
:104990005302070047fe07000000370050ff0700e2
:1049a00057ff0700c1688000d06880008080400009
:1049b000e068800080804000f068800080804000d7
:1049c000006980008080400010698000008f4000f6
:1049d000300020009e0f1000040034002048220008
:1049e00079fe0700d6ff0700ecff3700626b8000fe
:1049f000736b80001000200001002000800f510028
:104a0000818f590004003a00a1282000204822008c
:104a10003dfe0700e1ff3700204822006afe070044
:104a20000000eb00e5fa07000000eb0020fb0700a8
:104a3000daff37000000fa0080ae20008601070090
:104a4000e00107000000e000fdff32000080fa00f6
:104a5000000006000a00fa006000b8003007980065
:104a600041079800490037003e009000ce009000ba
:104a7000000040008180480082ae2000020040001b
:104a8000104078008000fb00800f20000080600054
:104a9000100798003e009000ce00900000004000fb
:104aa0008180480082ae2000020040001040780063
:104ab0000000fb0067006000c501dd003e009000c3
:104ac000ce0090000000400081804800610040005e
:104ad000e080480082ae20000200400010407800d4
:104ae0008000fb00000e2000008060004380de009c
:104af00000807100200798002e009000f400400014
:104b00001e009000808f500009003d003e00900084
:104b1000ce0090008000400080b8200080804000df
:104b200010002000800878001e0fe8000700370002
:104b30003e009000ce0090008000400080b8200031
:104b4000808040000000eb00800878001e00e0003c
:104b500005003400100020000100200040618800a2
:104b600051618800030037006000b8004061880090
:104b7000516188003e009000ce009000610040002e
:104b8000e080480030079800410798003e019000ff
:104b9000ce019000f004200001002000800f5100a1
:104ba000818f5900b0ff34000080fa000000060039
:104bb0000800fa000000eb00200798000000eb005e
:104bc000100798000000eb00000f7800120037007b
:104bd0001e0078008000400080b820000080400067
:104be000900078002e0090000100400020079800ff
:104bf000810220001e8040008000400080b820001c
:104c000000804000900078001e00900001004000ed
:104c1000100798001e0fe800700220009e0f100081
:104c2000ebff3400ae0090001e009000808f50001b
:104c300003003d00100020003007980002003700fc
:104c40008000eb00310798003e0090000080fa00e1
:104c5000000006000000fa00d5ff07000000e00099
:104c600005003200401f200054fa0700c0e02f006a
:104c70008ffa070004003700c0e02f004ffa07004a
:104c8000401f20008afa07000080fa00000006009a
:104c90000200fa009b0107001600200045002000da
:104ca000840020004300200002282000e10e2000a4
:104cb0000000eb0047010700110020001000200059
:104cc00070010700860107007afd07000000370029
:104cd00058ff07005fff0700a15e8000b05e800004
:104ce00080804000c05e800080804000d05e8000f8
:104cf00080804000e05e800080804000f05e8000a8
:104d0000008f4000300020009e0f1000070034008c
:104d1000a0622200acfd07000000eb0027fa0700ac
:104d20000000eb0062fa0700e9ff370040618000f5
:104d300051618000e00f5000e08f58000400320005
:104d4000a1282000a06222006ffd0700e0ff3700cd
:104d5000a06222009cfd07000000eb0017fa07008c
:0c4d60000000eb0052fa0700d9ff3700fa
:020000040000fa
:104d6c00480e00004400000002000000000000009b
:104d7c000000000000000000000000000000000027
:104d8c000000000000000000000000000000000017
:104d9c000000000000000000000000000000000007
:104dac0000000000000000000000000000000000f7
:104dbc0000000000000000000000000000000000e7
:104dcc000000000000000000a40e0000060000001f
:104ddc000200000000000000000000009c0e00001b
:104dec000800000000000000aa0e000002000000f5
:104dfc00000000008c0e00001000000000000000fd
:104e0c00ac0e00000200000000000000700d00005d
:104e1c00d800000002000000040305005306030044
:104e2c00075308000009d1000a000b00070c03000f
:104e3c000d510e00010fe7001202130002151000b5
:104e4c00164017004018400019401a00031be600da
:104e5c001c001d00701e0a001f1b2000443b00009c
:104e6c0046804800604996004a004b007d4c00008b
:104e7c004e084f000a50700059005a00005b0000a9
:104e8c005cac5d0002760000771a78002a79370056
:104e9c007a427b00567c68007d877e00a37fbc0035
:104eac0080d48100ea8e38008fa590000d9193007c
:104ebc00922d93000694830095aa96004d97250099
:104ecc0098259b00009c96009f80a00080a1b600b6
:104edc00a29da300aba48000a500a60007a701001b
:104eec00a8e7a90000aa0100ad9fae0022af8c007c
:104efc00b007b100ccb20000b370b90003bae60041
:104f0c00bb07bc00ccbd0000be0cc10010c2e00051
:104f1c00c310c400e0c58000c680c70001c8a5004e
:104f2c00c902ca007acb0000cca7cd0001ce470045
:104f3c00d43cd50001d88000940900005401000035
:104f4c0000000000e80a000044010000000000001e
:104f5c00ae0e000002000000000000002c0c00004f
:104f6c004401000000000000000800009401000053
:104f7c0000000000f40e000006000000020000001b
:104f8c000400000000000000fa0e00000600000003
:104f9c00020000002200b0000e220000b00e000043
:104fac004400000000000000000f000002000000a0
:084fbc000000000000000000ed
:020000040000fa
:104fc4003400f800881f780008002000a801880039
:104fd4004f0478000000fa0086c0a9001fe1a80071
:104fe40021e1a9000080fa003400f9000040060025
:104ff4000000fa0020002000000988000000eb00f7
:10500400c008880010002000e008880086c0a900bd
:105014008ec0a80021e1a8000080fa00000006006c
:105024000000fa0020002000f0088800a04c800056
:10503400a0088800a04c80000000e800d008880088
:1050440086a0a9001fe1a9008ea0a8000080fa0094
:10505400000006000200fa00000f78000000eb00d8
:10506400d04c88001e007800b04c88000000eb0093
:10507400c04c8800eaff0700ddff07000080fa004b
:10508400000006001200fa0030079800410798005b
:105094005207980063079800740798000000eb001b
:1050a40010079800ce0090005e0090000088b900c0
:1050b400800078006e0090000000e8000088b900cd
:1050c4000000e80080007800a0142000808f5000c9
:1050d400030036000080eb00000f98003500370015
:1050e4000000eb0020079800230037000000eb00cd
:1050f400000f7800090037009e009000e09920001e
:105104008080400010c0b300804878001e009000ea
:105114000000e800100798001e0fe8005e009000f1
:105124009e0f1000f4ff35000000eb00000f780024
:10513400090037009e009000e09920008080400024
:105144000040eb00804878001e0090000000e8005a
:10515400100798001e0fe800ee0090005e0090001b
:105164000088b9009e0f5000f2ff3c002e00900012
:105174000000e80020079800ae0090004e00900068
:10518400808f5000d9ff35009e009000e0992000e8
:105194008080400020c0b300804878007e009000ea
:1051a400a04c88003e009000e04c88000000eb001a
:1051b400000f98000e0890000080fa00000006001e
:1051c4000000fa00c04c80000080fa0000000600d5
:1051d4001200fa00000f78001107980022079800c7
:1051e400330798004407980055079800660798000d
:1051f40060758000000f9800000323008e08900063
:10520400808f500005003200000326008e089000b5
:10521400808f50000b003200140037006e039000a2
:10522400de0290004e029000be0190002e0190001c
:105234009e0090001e007800e3fa070070079800b3
:105244000c0037006e039000de0290004e029000c6
:10525400be0190002e0190009e0090001e00780078
:1052640084f9070070079800020037000080eb0003
:10527400700798007e0090000080fa00000006008d
:105284000600fa00000f780011079800607580008e
:105294002007980000032300ae009000808f500088
:1052a4000500320000032600ae009000808f5000fd
:1052b40005003200070037009e0090001e007800b1
:1052c40095ef0700030037009e0090001e00780051
:1052d400aff707000080fa00000006000000fa00a3
:1052e4006175800000032300808f500001003200ac
:1052f4000100370071ee07000080fa00000006008c
:105304000400fa007c0007002d000700d1a2a900c8
:105314004006200010079800040037000000000039
:105324001e0090000000e900100798001e00900085
:105334000000e000f9ff3a00d1a2a80040062000d6
:105344001007980004003700000000001e009000c1
:105354000000e900100798001e0090000000e00023
:10536400f9ff3a0081e0a900f1048000f0002f0069
:10537400808060000066200000804000f004880007
:105384008040eb00c0cdb30019000700104798001f
:1053940011c0b300c0cdb30015000700004f780062
:1053a4001e4090000080fb00c800dd001e80fb0052
:1053b40000807000607588000080fa00000006001c
:1053c4000000fa005df407000080fa000000060007
:1053d4000000fa009af407000080fa0000000600ba
:1053e4000000fa009cf407000080fa0000000600a8
:1053f4000400fa0020479800314798000040eb0071
:10540400004f78001800370010c0b300004f780038
:1054140097f407001e4f60002e409000aff5070080
:105424001e4f60003e409000acf507001e4f600028
:10543400b1f407001e4f60002e4090000040e800c9
:10544400a6f507001e4f60000e00e8004df50700aa
:105454001e4f600018f50700c9f407001e04e000a1
:1054640003003a0052f407001e04e000e6ff320095
:105474001e4090000000fb000080fa0000000600bf
:105484000600fa00204798003147980042479800e8
:105494000040eb00004f78001200370010c0b3004a
:1054a400004f780072f407001e4f60002e409000f9
:1054b4008af507001e4f60003e40900087f5070004
:1054c4001e4f60004e40900084f507001e4f6000a0
:1054d400abf407001e4f60001e04e00003003a0016
:1054e40033f407001e04e000ecff32001e00fb0052
:1054f4000080fa00000006000000fa00c4c2a900ff
:10550400c4e2a900c522a900c582a900c542a90018
:10551400c5a2a900c5c2a900c5e2a900c0c2a900cc
:10552400c0e2a900c122a900c182a900c142a90008
:10553400c1a2a900c1c2a900c1e2a900d022a90048
:10554400cc22a900d042a900cc42a900e2e2a900e1
:10555400e302a900e802a900e822a900dee2a9000a
:10556400df02a900e402a900e422a900e202a900e2
:10557400de02a900d602a900d622a900d642a900bb
:10558400d662a900d682a900d6a2a900d6c2a900d3
:10559400d6e2a900d202a900d222a900d242a900cf
:1055a400d262a900d282a900d2a2a900d2c2a900c3
:1055b400d2e2a900d1a2a900cda2a900e842a90083
:1055c400e862a900e442a900e462a900de22a8007e
:1055d400dec2a800e4c2a800e4e2a800e502a80034
:1055e400e522a800d302a800d322a800d342a80031
:1055f400d362a800d382a800d3a2a800d3c2a80073
:10560400d3e2a8000080fa00000006000000fa00bf
:10561400e6c2bf000080fb004600de00614060007f
:105624000081fb00e7c2bf000080fb000000d10046
:10563400614060000080fb000000400080007800b2
:10564400e7c2bf00614060000080fb0000804000b2
:105654000000400080007800e6c2bf000080fb002c
:105664004700de000080fb00008040000000400096
:10567400000041000080fa00000006005200fa0019
:105684009dff07009e000700c2f70700dfff070029
:10569400000f78001e00e00013003200100020000c
:1056a4009e0f100002003a00820007000e0037002f
:1056b400200020009e0f100002003a0073fd070036
:1056c40009003700300020009e0f100002003a004d
:1056d400a1fc070004003700400020009e0f1000ca
:1056e40001003a0047f30700ffff37008540a90097
:1056f400809fbe00821f7800a80ee20015003200d1
:10570400a40ee20016003200a60ee20014003200dd
:1057140021758000420020000f22af00feff3700f9
:10572400307580000000e000070032000000e9004e
:10573400a6aeb7003140780010e2b7000201e900dc
:10574400f5ff3a0002003700a42eef0001003700f5
:10575400217588004f0178004f00be00004006000c
:1057640000002000407588004f0178004f00be0003
:1057740000400600a80ee200feff3a008d40a9009a
:105784008100e90031758800b040780081108800fc
:105794002075880011002000417588008d40a80004
:1057a400000006004075800000000600809fbe00d7
:1057b4008520a90040748000f003b20081e4200039
:1057c400810040000000eb0012c2bf008048780056
:1057d400882eec004f00be0000400600407480009c
:1057e40051748000010050000000060041748000e4
:1057f400527480000208e10008003200f203b20093
:1058040081e4200002814000924078000148780041
:105814008a2eec0010002000000006000000eb00bf
:105824000000060000a0fe0086a0a9001421ef00dd
:1058340000000000b14c8000e29920001300200019
:10584400321ce100050032000800350000000000b1
:105854000000000000000000f9ff3700a0168000df
:105864004800de0080587800f5ff3700b14c88000e
:105874009a29ec00d04c80009c09e30003003a0014
:1058840010002000c04c88001fe1a9000080fe0029
:10589400004006000000fa00e0ea2000edfd0700e9
:1058a40047fe07000000e000fdff32000080fa0020
:1058b400000006000000fa0091fe07001600200018
:1058c4004500200044002000430020004200200046
:1058d400e10e2000e01320003dfe0700110020002f
:1058e4001000200066fe07007cfe0700e9ff0700a9
:1058f400e0ea2000210020009eff0700ffff3700a0
:105904000c22ef000e22ef000ee2a9000ec2a90045
:105914008520a9008d20a8000de2a80070002000b9
:10592400a01088008540a9008d40a80081e0a9004e
:10593400c0048000f1002f000080600001552000a9
:1059440000804000c00488000fe2a8000f42a800b5
:0c595400882eef008a2eef0000000600f5
:020000040000fa
:045960000000fe0045
:00000001FF
